:040000006F004056F7
:100004000000000000000000080200000A020000D6
:100014000000000062050000000000000000000075
:1000240062050000620500000000000000000000FE
:100034009C030000000000006205000000000000B6
:100044006205000062050000620500006205000010
:100054006205000062050000620500006205000000
:1000640062050000620500006205000062050000F0
:1000740062050000620500006205000062050000E0
:1000840062050000620500006205000062050000D0
:1000940062050000620500006205000062050000C0
:1000A40062050000460300006205000062050000CE
:1000B40062050000620500006205000062050000A0
:1000C4006205000062050000620500006205000090
:1000D4006205000062050000620500006205000080
:1000E4006205000062050000620500006205000070
:0C00F400620500006205000062050000CB
:10010000397101436EC619A0397141536AC866CA74
:1001100062CC5ECE19A0397101535AD056D252D456
:100120004ED64AD826DA22DC06DE330161408282CE
:1001300041114AC026C222C406C68282B24D410184
:10014000024D924C224CB24B4101024B924A224A40
:10015000B2494101024992442244B24041018280A5
:100160003D432A876373C3029377F700BDEFADE584
:10017000937606FF3D8ABA960CC34CC30CC74CC796
:100180004107E36BD7FE11E28280B306C3408A06C3
:100190009702000096966780A6002307B700A30683
:1001A000B7002306B700A305B7002305B700A304D3
:1001B000B7002304B700A303B7002303B700A302CB
:1001C000B7002302B700A301B7002301B700A300C3
:1001D000B7002300B700828093F5F50F9396850052
:1001E000D58D93960501D58D61B79396270097021B
:1001F000000096968682E78086FA9680C1171D8F4A
:100200003E96E374C3F8A5B701A001A0BD4763D033
:10021000A702FD4763D2A7021307F0038147634695
:10022000A700B7170140938707403E858280B71724
:10023000014093870780D5BFB7170140938707C058
:10024000EDB7BD4763DFA7007D47A1476359A7000E
:100250001307F00381476344A700930700023E851C
:1002600082809147EDBFEFF2BFEC41118545154506
:100270009925370530008545130505405121371470
:100280000140996711498D444C00130504807C821C
:100290004AC626C423130100B12EA1474C00130502
:1002A00004807C824AC626C4B126410165B5EFF2BE
:1002B0003FE8930735FF93F7F70F05474111AA84ED
:1002C0002E846363F70045372685A53F8545E523E2
:1002D00013F7F4008547B397E7009305F4FF7C829A
:1002E0002313010093F5F50F8D4763E9B702896782
:1002F000938707C68A05BE959C418287C1473EC643
:1003000026858D473EC419374C00ED24410199B52F
:1003100093078004EDB793078002D5B79147C5B71F
:10032000E147F1BFEFF2DFE041112EC62A84F93D2B
:100330003D888547B3978700324693950701C18171
:100340005D26410101BD411122C63734014085457A
:10035000130504C0792B11C98545130504C0752305
:10036000938781819843050798C332444101730004
:100370002030B7F700E023A20700814694C7014769
:10038000D8C788CBCCCB3D4798C3B7E700E005473B
:100390002386E740056723A0E7108280B7F700E0D7
:1003A00023A20700938781819843050798C37300B0
:1003B0002030EFF2FFD78D2805452529112A392550
:1003C000716513050520052D3704002083250408D9
:1003D00037250000130505C7D12D012CAA85372527
:1003E0000000130505C8D92537250000130505C9E8
:1003F000EF00007D854545455D3D032504089307D5
:10040000803E81453355F5027D15A53713878181DF
:1004100023200700138481811C408145858B91C373
:10042000854545450137CDBFB71702409843B7060C
:10043000FFF01367170098C3D843758FD8C398434C
:10044000B706F7FEFD16758F98C39843B706FCFFF5
:10045000FD16758F98C3D843B70601FFFD16758F3B
:10046000D8C337079F0098C7B746024003A7068046
:100470001367070123A0E680D843B706C1FFFD1626
:10048000D8C3D843D8C3D84313670740D8C3D84389
:10049000758FD8C3D843B7061000558FD8C398437B
:1004A000B7060001558F98C3984393166700E3DDA4
:1004B00006FED843B7160240719BD8C3D8431367D2
:1004C0002700D8C32147DC42B18BE39EE7FE828040
:1004D000B7160240DC42370700201146B18B1307E4
:1004E00007086385C70021466388C702B7177A00EB
:1004F000938707201CC3B7170240DC43918393F610
:10050000F700B707002093870700B69794231C4392
:10051000B3D7D7001CC38280DC42D4424166C98372
:10052000BD8BF18E890745466393C700C94781EEAD
:10053000B746024083A60680C18A89CEB7167A00E4
:100540009386062021A8B7160240D4421396E600EF
:10055000E35606FEB7163D0093860690B387D70292
:1005600051BF01A0970100209381C13117210020C4
:1005700013014129171500001305057D970500207B
:10058000938545A81386818163FAC50083220500FF
:1005900023A0550011059105E3EAC5FE138581816D
:1005A000938541836377B500232005001105E36D32
:1005B000B5FEFD42739002BC8D427390428093025F
:1005C000800873900230970200009382E2A393E2C6
:1005D000320073905230EFF03FE5970200009382B3
:1005E00082DD7390123473002030B7F7FF1F03A52C
:1005F000477082809C4513F7070113F8F70001C785
:10060000D8413368E80037270240145B3707000FF2
:10061000758F4DEB8546238ED180371701406315CA
:10062000E5009A2135839AA18E2113F7F50F39C37E
:1006300018418146854E3D4F930F800293028004FE
:10064000214E3396DE00B3F8C5006311160393986C
:10065000260033131F011343F3FF3377E300B3186E
:10066000180133E7E8006397F70750C98506E39A56
:10067000C6FD18C11307F00F6375B7045441214636
:10068000854E3D4F930F800293028004414EB398F4
:10069000CE0033F715016392E80213172600011705
:1006A0003313EF001343F3FFB376D3003317E8009F
:1006B000D98E6395F703232A15010506E319C6FDB4
:1006C00054C1828037170140E310E5F603C7C181AA
:1006D00021DF81BFE39C57F810C949BFE39F57FC56
:1006E00023281501D9BFB71701406316F50083C74A
:1006F000C18191C3B58119C20CC982804CC9828065
:10070000B7070140635A0504DC4F935605011318DF
:1007100005013707300013F6F60013580801B376C9
:10072000E500635E05066399E604930606010D463F
:10073000B316D60093C6F6FFF58F99C91357550126
:100740001377F73F12073317E800D98F6355050673
:10075000370701405CCF828037270240145BDC43BF
:100760003707000F758F55F313D71700F976CE07AB
:10077000758FCD83D98F51BF1317B500635607000E
:100780008D46B396C6007DB7135755011377F73FD3
:1007900012073317E8001347F7FFF98F79BF63900B
:1007A000E602370601405442370700F17D17F98F02
:1007B000758F58C2C1F5370701405CC3828013179B
:1007C000B500635C07008D46B396C60093C6F6FF7E
:1007D000FD8EB707000FD58FF1BF135755011207D4
:1007E0003317E8001347F7FF7D8FB707000FD98F46
:1007F000D1B723A0A1828280371702405C43914683
:10080000B18B6385D700A1466382D706B7177A00FC
:10081000938707201CC1371602405C42370700202F
:10082000130707019183BD8BBA9794231C41B3D75B
:10083000D7005CC15442A1829D8ABA969422B3D655
:10084000D70014C55442AD829D8A36971823B3D77A
:10085000E7005CC55842398393763700138741809F
:1008600036971823B3D7E7021CC982805C435843EC
:10087000C166C983BD8B758F8907C5466393D70051
:10088000C94701EF3747024003270780418B09CF53
:1008900037177A001307072021A83717024058435B
:1008A0009316E700E3D606FE37173D0013070790BF
:1008B000B387E70285B799C5371702401C4F5D8D96
:1008C00008CF8280B7170240984F1345F5FF798D06
:1008D00088CF828099C5371702405C4F5D8D48CF25
:1008E0008280B7170240D84F1345F5FF798DC8CFE6
:1008F00082801E294A25ED8F4205418189C76D8D71
:100900003335A00082800145828093C5F5FFC20582
:10091000C1810EA98280EFF2BF811629F577FD17FC
:10092000F58FF621DA257971D58F1EA95625FD7729
:100930009387379FF58FD6212A842EC6D58F96258B
:10094000D58FB625D58F5EA55E29C207C18393F7E3
:10095000F7CFD98F5EA968084535B747014093871F
:100960000780B245631EF402A2576547B387E702CA
:100970009841930640060A07B3D7E70233D7D70258
:10098000B3F7D7021207920793872703B3D7D7028B
:10099000BD8BD98FC207C1831EA445616FF08FFB49
:1009A0009257E1B791C55E250967D98F5EA5828010
:1009B0005A25F977FD17F98FD5BF93F5F51F4EA18D
:1009C00082800A216D8D3335A0008280B707002018
:1009D00083A7070837177A0013070720B3D7E70262
:1009E00093F7F70F2383F1821307803EB387E70263
:1009F0002392F1828280EFF2AFF301112A848545C0
:100A000037050200C13D85451145753591477C820A
:100A1000371501408D473EC44C00E1471305058062
:100A20003EC6C93E22C837440040B70708000C083C
:100A3000130504403ECC02CA231E0100E93D854552
:100A400013050440853705616FF0CFF0EFF2AFEC8E
:100A5000B7440040AE893289014493840440634521
:100A600024014A856FF06FEE930500042685913FBF
:100A700065DDB38789008385070026850504C205E7
:100A8000C181253FE9BF138781801C439386418341
:100A90003E95636BD500B72600209386060063E57C
:100AA000A60008C33E858280FD57EDBF39713EDA4E
:100AB0002ED232D436D63AD842DC46DE9387C18075
:100AC00022CC804326CA06CEAA8409C41C4C99E3D2
:100AD0002285ED290C4454102686228536C6EF0067
:100AE0007012F2406244D24421618280011126CA10
:100AF0004AC806CE22CC4EC652C4AA842E8901C54D
:100B00001C4D91E3E1219C4C804499E326857D298D
:100B1000971700009387871B631BF402C0405E2475
:100B2000A18BB1C71C48A1C7FD59294A1C44834564
:100B30000900FD17B1E91CC463DD07062286A9453B
:100B400026856120FD576308F502294535A09717D2
:100B500000009387A7196314F4008044C9B797175E
:100B600000009387A714E31CF4FAC0444DBFA2858C
:100B70002685112A55D97D55F2406244D244424916
:100B8000B249224A056182801CC4050963D7070067
:100B9000184C63CAE700638845011C40138717009F
:100BA00018C08CA361B7228626850520E31035F98D
:100BB000D9B71C401387170018C0294798A371B7ED
:100BC0009387C180AA85884315B7011122CC26CA14
:100BD0004AC806CE4EC6AA842E89328401C51C4D51
:100BE00091E3ED26971700009387470E6317F406ED
:100BF000C0401C4C1CC45E24A18BC1C31C48B5CF93
:100C00001C4808409379F90F1379F90F1D8D5C4842
:100C10006346F500A2852685692C25E51C4405055B
:100C2000FD171CC41C401387170018C02380370110
:100C30005C486388A7005E24858B81CBA947631637
:100C4000F900A2852685B5240DEDF24062444A855F
:100C5000D2444249B24905618280971700009387C8
:100C6000E7086314F400804469B79717000093877E
:100C7000E703E310F4F8C044ADBFA2852685212028
:100C800041D17D59D9B741119387C18026C2844390
:100C900022C44AC006C62A892E8489C49C4C99E382
:100CA00026852D269717000093874702631BF402C1
:100CB000C0400317C40093170701C18393F6870050
:100CC000ADEA93F6070195EEA5472320F9001367D7
:100CD00007045AA47D55B24022449244024941017E
:100CE000828097170000938767006314F4008044A4
:100CF000C9B797170000938767FBE31CF4FAC04459
:100D00004DBF918B9DC34C5889C99307440463849C
:100D1000F5004A853123232A04025E24232204009D
:100D200093F7B7FD5EA41C481CC05E2493E78700C0
:100D30005EA41C4899EB5E241307002093F7072854
:100D40006385E700A2854A85A1215E2413F7170079
:100D50001DC35C4823240400B307F0401CCC1C488E
:100D60000145B5FB8317C40013F707082DD793E798
:100D700007045EA485B7898B014791E3584818C4DE
:100D8000F9BFDE25011122CC26CA06CE4AC84EC6BE
:100D900013F78700AA842E8479EBD841634DE000D5
:100DA000B841634AE0000145F2406244D2444249FE
:100DB000B2490561828058547DD703A904009396F7
:100DC000370123A0040063DB060670485E24918B84
:100DD00099C75C401D8E5C5899C33C401D8E5C5485
:100DE0000C50814626858297FD575A24631DF500D5
:100DF0009440F54763E8D706B70740208507B3D787
:100E0000D700858BA5C31C48232204001CC0931760
:100E1000370163D80700FD576314F5009C4091E348
:100E200068C84C5823A02401BDDD930744046384A3
:100E3000F5002685F526232A0402B5B70C50014695
:100E4000854626850297FD572A86E311F5F89C40D2
:100E5000B5DF75476385E70059476393E70423A02F
:100E6000240191B7136707045AA47D5535BF83A9A0
:100E70000501E38A09F203A905008D8B23A0350142
:100E800033093941014791E3D84918C4E35D20F1A2
:100E90001C540C50CA864E86268582976347A00054
:100EA0005E2493E707045EA4C9B7AA993309A94051
:100EB000F1BF9C49B9CF011122CC06CE2A8411C5BD
:100EC0001C4D81E72EC61922B24597170000938763
:100ED000E7DF639BF5004C408397C50095C72285EB
:100EE0006244F240056171BD97170000938707E0E7
:100EF0006394F5000C44CDB797170000938707DB88
:100F0000E39CF5FC4C44C9BFF240624401450561D5
:100F1000828001458280411122C406C62A844EA5E2
:100F200072A5232005002322050023240500232287
:100F3000050623280500232A0500232C0500214649
:100F400081451305C505EFF0AFA197170000938702
:100F500047B15CD097170000938767B31CD49717ED
:100F60000000938747B75CD4971700009387A7B911
:100F700000D01CD8B2402244410182809705000075
:100F8000938565F3A9A2411126C2130680069384B6
:100F9000F5FFB384C4024AC02E8922C406C69385D5
:100FA00044071D262A8401CD232005002322250184
:100FB000310508C4138684068145EFF06F9A2285B7
:100FC000B240224492440249410182801C4DADE36B
:100FD000411106C622C497070000938767FA1CD503
:100FE000938701819C432324050423260504232899
:100FF00005046314F50085471CCD2A841D2848C0CC
:101000002285052808C422852D2048C44840014671
:101010009145113708440546A545F53D4844094624
:10102000C945D53D85471CCCB24022444101828050
:10103000828041119387018126C284434AC006C63B
:101040009C4C22C42A8999E32685493793848404D9
:101050008044DC40FD1763D607009C40B9CF844034
:10106000C5BF0317C40039E7C177850723220406EB
:101070002320040023220400232404005CC423282A
:101080000400232A0400232C040021468145130573
:10109000C405EFF0EF8C232A0402232C040223243E
:1010A0000404232604042285B240224492440249C7
:1010B000410182801304840671BF91454A85E13560
:1010C00088C051FDB1472320F9000144E9BF79717F
:1010D00022D44AD052CC56CA5AC85EC606D626D2A8
:1010E0004ECE2A8AAE8A130485040149054BFD5B66
:1010F00009ECB25022544A8592540259F249624A8C
:10110000D24A424BB24B4561828004448329440059
:10111000FD1963D409000040E1BFDE24637BFB00BE
:101120008397E40063877701A6855285829A3369A5
:10113000A90093848406E9BF1971A6DAAE84839569
:10114000E500A2DC86DE328463DB0500DE2423A01A
:10115000060093F7070885E7930700401DA03008B5
:1011600036C6EF00D01FB246E34205FE7247BD67A8
:10117000F98F7977BA9793B717009CC2F1BF93079D
:1011800000041CC0F6506654D654014509618280A3
:10119000DE25011122CC06CE26CA4AC8898B2E84B0
:1011A00089CF930774041CC01CC885475CC8F240F3
:1011B0006244D24442490561828074003000AA84AE
:1011C000A53FA2452A892685012219E98317C40073
:1011D00013F7072069FFF19B93E727005EA4D1B7BF
:1011E000970700009387C7D99CD45E2408C008C81D
:1011F00093E707085EA4A2475CC8B24781CF831576
:10120000E4002685EF00501811C55E24F19B93E79A
:1012100017005EA45E243369F9002316240141BF40
:10122000DDC183A7C5FF411122C406C626C21384AF
:10123000C5FF63D307003E94AA84EF00B01B9387D9
:1012400081829C4381EF2322040023A481822244D3
:10125000B2402685924441016F00F019637EF4008C
:1012600014403307D4006396E7009843DC43369775
:1012700018C05CC0D9BFBA87D84319C3E37DE4FE68
:1012800094433386D700631F86001040B29694C300
:101290003386D700E31DC7FA10435843B29694C370
:1012A000D8C375B76375C400B1479CC04DB7104033
:1012B000B306C4006316D70014435843B29614C053
:1012C00058C0C0C369B78280011126CA9384350013
:1012D000F19806CE22CC4AC84EC6A104B14763F3AA
:1012E000F404B14463E2B4042A89EF00B010938798
:1012F000818298433A8439E09387C1829C4391E785
:1013000081454A85052F23A6A182A6854A851D27EA
:10131000FD5963193507B1472320F9004A85EF00CD
:10132000900D29A0E3D004FCB1471CC10145F24057
:101330006244D2444249B249056182801C40858F93
:1013400063CF0702AD4663F6F6001CC03E9404C0AE
:1013500031A05C406313870223A4F1824A85EF0029
:1013600090091305B4009307440061993307F540D1
:101370005DDF3A94898F1CC05DBF5CC3C5B722870F
:10138000404095BF130435007198E30285FCB30516
:10139000A4404A854525E31C35FBB5BF1C46FD1717
:1013A0001CC663DA0700184E63C5E700A9476394BB
:1013B000F5006FF09F811C422E851387170018C21D
:1013C0008CA38280011122CC26CA4AC84EC652C4C0
:1013D00006CE2A89AE893284B304D6007D5A6314BE
:1013E0009400014501A80C204E864A85453F05041E
:1013F000E31745FFF2406244D2444249B249224ACF
:1014000005618280357122CD26CB4AC94EC706CFF1
:1014100052C556C35AC1DEDEE2DCE6DAAA89AE84E2
:101420003289368401C51C4D91E34D369717000073
:101430009387C7896397F40C83A44900DE24A18BAA
:10144000FDC39C48EDC393070002A304F102930778
:10145000000302D22305F10222C6930B5002971A11
:101460000000938AAA8A054C294B4A841C2099C300
:10147000639E770DB30C2441638D0C00E6864A868B
:10148000A6854E858137FD57630FF51C9256E6966B
:1014900036D21C206389071CFD571309140002C8AB
:1014A00002CE3ECA02CCA309010482D483450900BE
:1014B00015465685252713041900C24751E913F72D
:1014C000070109C713070002A309E10413F7870006
:1014D00009C71307B002A309E104834609001307F3
:1014E000A002638FE606F2474A848146254618200B
:1014F00093051400130707FD6377E60AB5CA3ECECD
:1015000085A8970700009387677E6395F40083A4FE
:1015100089002DB79707000093874779E390F4F28D
:1015200083A4C90021BFA6854E85EFF0CFF501DD6C
:101530007D55FA406A44DA444A49BA492A4A9A4AE5
:101540000A4BF65B665CD65C0D618280050439BF90
:10155000330555413315AC00C98F3EC82289B9B750
:10156000324793064700184336C6634707023ACE10
:1015700018209307E002631DF70418309307A002B8
:10158000631BF702B2470904138747009C433AC61E
:1015900063C107023ECA2DA83307E04093E7270046
:1015A0003ACE3EC8F1B7B387670385462E84BA9713
:1015B0003DBFFD57C5B7050402CA81468147254690
:1015C000182093051400130707FD6374E606F9F26B
:1015D0000C200D46170500001305C573012511CD1C
:1015E00097070000938707731D8D93070004B39737
:1015F000A700424505045D8D2AC80C201946170531
:10160000000013056571130914002304B102F923C6
:1016100035C197F7FFFF9387E79E95E74247B247AB
:101620001377071009CF91073EC69257D2973ED243
:101630002DBDB387670385462E84BA9751B79D07A2
:10164000E19BA107D5B77800970600009386C6D71F
:1016500026860C084E8597000000E7000000FD5725
:101660002A8AE314F5FCDE2493F70704E39207ECDF
:101670001255C1B57800970600009386E6D42686F9
:101680000C084E85012AE1BF797156CA9C49BA8A75
:10169000984522D426D24ECE52CC06D64AD05AC82D
:1016A0005EC6AA892E84B284368A63D3E700BA87DD
:1016B0009CC00347340419C385079CC01C4093F7A2
:1016C000070281C79C4089079CC003290400137945
:1016D0006900631A0900130B9401FD5B5C44984098
:1016E000998F634CF9041C408346340493F7070236
:1016F000B336D000A5EB13063404D2854E85829A0A
:10170000FD576303F5041C4011469840998B5444DF
:1017100081446397C700B384E64063D304008144E7
:101720001C4418486354F700998FBE94014969041A
:101730007D5B63982405014509A885465A86D285B4
:101740004E85829A631E75017D55B2502254925483
:101750000259F249624AD24A424BB24B45618280F9
:101760000509ADBF3307D40013060003A301C70466
:101770000347540493871600A2978906A381E704C0
:101780009DBF85462286D2854E85829AE30E65FBF3
:10179000050945B7797122D426D24AD04ECE06D655
:1017A00052CC56CA5AC8B689942D930790063289EE
:1017B000AA842E8413863504638DF60263E2D7066D
:1017C000930780056385F61863EDD700638D0620C7
:1017D00093073004638EF60A930A24042301D40489
:1017E000C9A0930730066385F60A93074006E39580
:1017F000F6FE1C40084393F6070893054500C5C64E
:101800001C410CC363D807001307D002B307F04094
:10181000A301E4049706000093868650294765A833
:10182000930700076381F61663E5D7029307E00686
:101830006388F6189307F006E390F6FA0C401C4311
:1018400013F80508138547006307080608C39C437F
:1018500085A893075007E383F6FE93078007638804
:10186000F61293073007E399F6F61C43D041814501
:101870009386470014C383AA07005685852601C5B1
:101880003305554148C05C401CC8A301040461A84D
:101890001C43930A2404938647009C4314C32301EA
:1018A000F4048547D5B793F607041C410CC3B9DA95
:1018B000C207C18781BF93F5050408C3C9D99E2318
:1018C0001307F0066386E60E9706000093864645EA
:1018D0002947A30104044C400CC463C5050008401B
:1018E0006D9908C099E3B28A89CDB28AB3F5E7024F
:1018F000FD1AB6958C212380BA00B3D5E70263FFA9
:10190000E70AA147631EF7001C40858B91CB584026
:101910001C4863C7E70093070003A38FFAFEFD1A74
:101920003306564110C84E87CA867000A2852685A8
:10193000A13B7D5A631D450B7D55B25022549254F4
:101940000259F249624AD24A424B45618280A382DF
:10195000D504970600009386A63C0C40084313F874
:1019600005081C411105630D080208C313F7150093
:1019700001C793E505020CC04147A1FF0C4093F558
:10198000F5FD0CC0B9B79C4193E707029CC19307D2
:101990008007A302F404970600009386A63975BF5A
:1019A00013F8050408C3E30308FCC207C1837DBF25
:1019B000970600009386C636214721BFAE873DB704
:1019C00094411C43CC4913F806081385470063066D
:1019D000080008C39C438CC339A008C393F60604CF
:1019E0009C43F5DA8EA323280400B28A2DBF144845
:1019F0005686CA8526858299E30045F51C40898B69
:101A00008DE7B2474844E35AF5F23E853DB7854637
:101A10005686CA8526858299E30065F3050A5C44EB
:101A20003247998FE345FAFEE9BF014A930A9401D0
:101A30007D5BF5B7411122C42A842E8523A801823B
:101A400006C6EFF04F84FD576317F50093870183B7
:101A50009C4391C31CC0B240224441018280411189
:101A600022C42E848395E50006C6792263490500C9
:101A70007C48AA977CC8B2402244410182805E24FF
:101A80007D777D17F98F5EA4FDB7DE25011122CC8D
:101A900026CA4AC84EC606CE93F70710AA842E84DB
:101AA0003289B68991C78395E500894601460922A6
:101AB0005E247D777D17F98F5EA48315E400624470
:101AC000F240CE864A86B24942492685D244056113
:101AD00025A8411122C42E848395E50006C6C92895
:101AE000FD575A24631AF500FD77FD17F98F5EA4A0
:101AF000B2402244410182808567D98F5EA468C8C4
:101B0000C5BF8395E50005A8411122C42A842E850E
:101B1000B285368623A8018206C6EFE03FF3FD5763
:101B20006317F500938701839C4391C31CC0B240A7
:101B3000224441018280411122C42A842E8523A897
:101B4000018206C6C520FD576317F5009387018300
:101B50009C4391C31CC0B240224441018280411188
:101B600022C42A842E85B28523A8018206C6C920F4
:101B7000FD576317F500938701839C4391C31CC0F5
:101B8000B240224441018280411122C42A842E8520
:101B900023A8018206C65D20FD576317F5009387D1
:101BA00001839C4391C31CC0B24022444101828006
:101BB000411122C42A842E85B285368623A801824B
:101BC00006C65920FD576317F500938701839C4390
:101BD00091C31CC0B24022444101828093F5F50FAD
:101BE0002A966314C500014582801C21E38EB7FE4E
:101BF0000505C5BF82808280411122C42A842E85BA
:101C0000B285368623A8018206C6A920FD57631730
:101C1000F500938701839C4391C31CC0B2402244CA
:101C2000410182809307800523A8F1827D5582803F
:101C30009307800523A8F1827D5582809307800554
:101C400023A8F182014582809307800523A8F182B1
:101C50007D5582809307800523A8F1827D5582807F
:101C6000FC02000010030000160300002003000027
:101C700053797374656D436C6B3A25640D0A0000EB
:101C80004368697049443A253038780D0A000000ED
:101C900054686973206973207072696E7466206578
:101CA00078616D706C650D000000000000000000A0
:101CB0000000000000000000000000000000000024
:101CC0000000000000000000000000000000000014
:101CD0000000000000000000000000000000000004
:101CE00000000000000000000000000000000000F4
:101CF00000000000000000000000000000000000E4
:101D00000000000000000000232D302B2000000008
:101D1000686C4C00656667454647000030313233D9
:101D200034353637383941424344454600000000D7
:101D30003031323334353637383961626364656641
:041D4000000000009F
:101D44000000000000000000010203040607080967
:101D5400000000000102030401020304060708094D
:101D640000000000C81C0000E81C0000A81C0000C3
:101D7400000000000000000000000000000000005F
:101D8400000000000000000000000000000000004F
:101D9400000000000000000000000000000000003F
:101DA400000000000000000000000000000000002F
:101DB400000000000000000000000000000000001F
:101DC400006CDC0202040608B4000020200000209D
:081DD4002000002000000000C7
:00000001FF
