:040000006F00206706
:100004000000000000000000080200000A020000D6
:100014000000000070060000000000000000000066
:1000240070060000700600000000000000000000E0
:1000340082020000000000007006000000000000C2
:1000440070060000700600007006000070060000D4
:1000540070060000700600007006000070060000C4
:10006400700600001C04000070060000700600000A
:1000740070060000700600007006000070060000A4
:100084007006000070060000700600007006000094
:100094007006000070060000700600007604000080
:1000A4007006000070060000700600007006000074
:1000B4007006000070060000700600007006000064
:1000C4007006000070060000700600007006000054
:1000D4007006000070060000700600007006000044
:1000E4007006000070060000700600007006000034
:0C00F4007006000070060000700600009E
:10010000397101436EC619A0397141536AC866CA74
:1001100062CC5ECE19A0397101535AD056D252D456
:100120004ED64AD826DA22DC06DE330161408282CE
:1001300041114AC026C222C406C68282B24D410184
:10014000024D924C224CB24B4101024B924A224A40
:10015000B2494101024992442244B24041018280A5
:100160003D432A876373C3029377F700BDEFADE584
:10017000937606FF3D8ABA960CC34CC30CC74CC796
:100180004107E36BD7FE11E28280B306C3408A06C3
:100190009702000096966780A6002307B700A30683
:1001A000B7002306B700A305B7002305B700A304D3
:1001B000B7002304B700A303B7002303B700A302CB
:1001C000B7002302B700A301B7002301B700A300C3
:1001D000B7002300B700828093F5F50F9396850052
:1001E000D58D93960501D58D61B79396270097021B
:1001F000000096968682E78086FA9680C1171D8F4A
:100200003E96E374C3F8A5B701A001A0EFF25FF238
:1002100003A48181B7F700E08847CC479307002308
:100220003304F402130600038146EF009025229563
:1002300015B7EFF2FFEFD93F9307803E3355F50234
:1002400011BFEFF2FFEE2A84ED372A94DD376363A6
:10025000850009B70100DDBFB7F700E023A2070062
:10026000814694C70147D8C788CBCCCB3D4798C3BC
:10027000B7E700E005472386E740056723A0E710BE
:100280008280B7F700E023A207009387818198431B
:10029000050798C373002030BD4763D0A702FD4710
:1002A00063D2A7021307F00381476346A700B7177D
:1002B0000140938707403E858280B71701409387AE
:1002C0000780D5BFB7170140938707C0EDB7BD477B
:1002D00063DFA7007D47A1476359A7001307F00319
:1002E00081476344A700930700023E8582809147BF
:1002F000EDBFEFF2FFE3411185451545EF00E07DCD
:1003000037053000854513050540B52B37140140EE
:10031000996711498D444C00130504807C824AC6BC
:1003200026C423130100BD21A1474C0013050480FE
:100330007C824AC626C4B929410129BDEFF25FDF9C
:10034000930735FF93F7F70F05474111AA842E84D1
:100350006363F700793F26859D3F8545EF00E07791
:1003600013F7F4008547B397E7009305F4FF7C8209
:100370002313010093F5F50F8D4763E9B7028967F1
:100380009387071A8A05BE959C418287C1473EC65E
:1003900026858D473EC409374C00ED2E41015DBBDB
:1003A00093078004EDB793078002D5B79147C5B78F
:1003B000E147F1BFEFF2DFD7011185450545FD2D7E
:1003C00089450D45A53F894515458D3F8D4501451D
:1003D0006523954501454D230544A147314908084A
:1003E0003EC84ACC22CE02CA292E930790118944D6
:1003F00028007C84448522C64D2B93070002080800
:100400003EC84ACC22CE02CAED2C930770122800B7
:100410007C84448522C6512B05612DBB39712AD6B7
:10042000214506DE16DC1ADA1ED82ED432D236D09A
:100430003ACE3ECC42CA46C872C676C47AC27EC0A4
:10044000352619C52145912613053003EF0070406C
:10045000F250E2525253C2533255A25512568256AE
:100460007247E2475248C248324EA24E124F824F64
:1004700021617300203039712AD61305000206DE8F
:1004800016DC1ADA1ED82ED432D236D03ACE3ECC72
:1004900042CA46C872C676C47AC27EC0C12C01C99F
:1004A00013050002DD2413055003EF00903AF250CB
:1004B000E2525253C2533255A255125682567247D7
:1004C000E2475248C248324EA24E124F824F21613B
:1004D00073002030EFF2DFC5B9280545E121012284
:1004E000716513050520DD25B707002083A50708E2
:1004F000372500001305051BEF00D031F52AAA852A
:10050000372500001305051CEF00D0308545454513
:1005100035351D651305C58F81453D3B37240000EA
:10052000513D1305803E313B2933AA851305041D37
:10053000EF00502EFDB7B71702409843B706FFF003
:100540001367170098C3D843758FD8C39843B7066D
:10055000F7FEFD16758F98C39843B706FCFFFD168E
:10056000758F98C3D843B70601FFFD16758FD8C3A2
:1005700037079F0098C7B746024003A70680136756
:10058000070123A0E680D843B706C1FFFD16D8C3F4
:10059000D843D8C3D84313670740D8C3D843758F0F
:1005A000D8C3D843B7061000558FD8C39843B706B1
:1005B0000001558F98C3984393166700E3DD06FE4C
:1005C000D843B7160240719BD8C3D843136727009E
:1005D000D8C32147DC42B18BE39EE7FE8280B71689
:1005E0000240DC42370700201146B18B1307070891
:1005F0006385C70021466388C702B7177A009387CF
:1006000007201CC3B7170240DC43918393F6F70021
:10061000B707002093870700B69794231C43B3D7EE
:10062000D7001CC38280DC42D4424166C983BD8BA3
:10063000F18E890745466393C700C94781EEB746E7
:10064000024083A60680C18A89CEB7167A009386B7
:10065000062021A8B7160240D4421396E600E356BE
:1006600006FEB7163D0093860690B387D70251BFAA
:1006700001A0970100209381E120172100201301A0
:10068000611817250000130525CF970500209385D5
:1006900065971386818163FAC5008322050023A034
:1006A000550011059105E3EAC5FE13858181938507
:1006B00001836377B500232005001105E36DB5FEC6
:1006C000FD42739002BC8D42739042809302800879
:1006D00073900230970200009382029393E23200FB
:1006E00073905230EFF03FE5970200009382C2DE34
:1006F0007390123473002030B7F7FF1F03A54770C3
:1007000082805841032805004C4537060140930775
:1007100006403E979346F8FFB1C583250640F58D08
:100720002320B640D043F18ED4C31443B3E6060170
:1007300014C3184190479346F7FF758E90C7D04772
:10074000F18ED4C7144541466399C6009447D98EAB
:1007500094C7D447558FD8C78280B6979443558F96
:1007600098C382801C43F58F1CC38280B707014069
:100770001387074083A70740584B698F09C77D8DB2
:100780003335A000828001458280B707014023AA4B
:10079000A74082809C4513F7070113F8F70001C7B3
:1007A000D8413368E80037270240145B3707000F51
:1007B000758F4DEB8546238ED18037170140631529
:1007C000E5009A2135839AA18E2113F7F50F39C3DD
:1007D00018418146854E3D4F930F8002930280045D
:1007E000214E3396DE00B3F8C500631116039398CB
:1007F000260033131F011343F3FF3377E300B318CD
:10080000180133E7E8006397F70750C98506E39AB4
:10081000C6FD18C11307F00F6375B7045441214694
:10082000854E3D4F930F800293028004414EB39852
:10083000CE0033F715016392E80213172600011763
:100840003313EF001343F3FFB376D3003317E800FD
:10085000D98E6395F703232A15010506E319C6FD12
:1008600054C1828037170140E310E5F603C7C18108
:1008700021DF81BFE39C57F810C949BFE39F57FCB4
:1008800023281501D9BFB7070140635A0504DC4F7F
:1008900093560501131805013707300013F6F600CB
:1008A00013580801B376E500635E05066399E60414
:1008B000930606010D46B316D60093C6F6FFF58FD4
:1008C00099C9135755011377F73F12073317E800FB
:1008D000D98F63550506370701405CCF82803727E3
:1008E0000240145BDC433707000F758F55F313D7B5
:1008F0001700F976CE07758FCD83D98F51BF1317A7
:10090000B500635607008D46B396C6007DB71357F2
:1009100055011377F73F12073317E8001347F7FF26
:10092000F98F79BF6390E6023706014054423707DA
:1009300000F17D17F98F758F58C2C1F53707014057
:100940005CC382801317B500635C07008D46B396C5
:10095000C60093C6F6FFFD8EB707000FD58FF1BF17
:100960001357550112073317E8001347F7FF7D8F20
:10097000B707000FD98FD1B713F7C50F93F735001D
:10098000B7050140BA9594458A073D473317F700EC
:100990001347F7FF758F98C598453315F500598DA6
:1009A00088C5828023A0A182828003A70182854717
:1009B00014216310F7021C31639CE7023C21960767
:1009C00093E707F837E700E093F7F70F3697230030
:1009D000F740054793D756003317D700544189CEC7
:1009E000938707048A07B7E600E0B69798C382802A
:1009F000EDF33C219607F9B793870706E5B737175C
:100A000002405C439146B18B6385D700A146638267
:100A1000D706B7177A00938707201CC13716024004
:100A20005C4237070020130707019183BD8BBA97FB
:100A300094231C41B3D7D7005CC15442A1829D8A44
:100A4000BA969422B3D6D70014C55442AD829D8A7B
:100A500036971823B3D7E7005CC55842398393769D
:100A600037001387418036971823B3D7E7021CC994
:100A700082805C435843C166C983BD8B758F8907EB
:100A8000C5466393D700C94701EF374702400327A4
:100A90000780418B09CF37177A001307072021A859
:100AA0003717024058439316E700E3D606FE371780
:100AB0003D0013070790B387E70285B799C537173D
:100AC00002405C4B5D8D48CB8280B7170240D84B0B
:100AD0001345F5FF798DC8CB828099C53717024041
:100AE0001C4F5D8D08CF8280B7170240984F134589
:100AF000F5FF798D88CF828099C5371702405C4F0A
:100B00005D8D48CF8280B7170240D84F1345F5FF5F
:100B1000798DC8CF8280EFF2AFE11629F577FD1706
:100B2000F58FF621DA257971D58F1EA95625FD7727
:100B30009387379FF58FD6212A842EC6D58F962589
:100B4000D58FB625D58F5EA55E29C207C18393F7E1
:100B5000F7CFD98F5EA968085D35B7470140938705
:100B60000780B245631EF402A2576547B387E702C8
:100B70009841930640060A07B3D7E70233D7D70256
:100B8000B3F7D7021207920793872703B3D7D70289
:100B9000BD8BD98FC207C1831EA445616FF08FDB67
:100BA0009257E1B791C55E250967D98F5EA582800E
:100BB0005A25F977FD17F98FD5BF93F5F51F4EA18B
:100BC00082800A216D8D3335A0008280EFF24FD6EE
:100BD00001112A84854537050200393F85451145B5
:100BE000ED3D91477C82371501408D473EC44C0056
:100BF000E147130505803EC6713E22C837440040D8
:100C0000B70708000C08130504403ECC02CA231E97
:100C100001001137854513050440693705616FF000
:100C20006FD3EFF24FCFB7440040AE893289014411
:100C300093840440634524014A856FF00FD19305E6
:100C400000042685BD3F65DDB387890083850700E5
:100C500026850504C205C1818D37E9BF13878180D0
:100C60001C43938601833E95636BD500B726002015
:100C70009386060063E5A60008C33E858280FD5783
:100C8000EDBFB687B2882A832E88639B061463F86B
:100C9000C50A4167636BE61AB70700016360F63463
:100CA00093568601E147171700001307275336971D
:100CB0001823BA97130700021D8F19CB3398E5004C
:100CC000B357F500B318E60033E807013313E50026
:100CD00013D608013355C80293960801C182935771
:100CE00003013377C802B385A60242073368F700D1
:100CF000637AB80046989307F5FF6364180163654B
:100D0000B8303E853308B8403357C8024203135306
:100D100003013378C802B386E602420833686800EC
:100D2000637BD80046989307F7FF6365180179172E
:100D30006363D8003E874205598D8145828001E674
:100D40000547B358C702416763E8E80EB7070001DB
:100D500063EAF82893D68801E147171700001307C4
:100D6000E74736971423BE9693070002958FFDE759
:100D7000939E08013387154113DF080193DE0E01AE
:100D80008545935703013355E7033377E703B306EC
:100D9000D5034207D98F63FAD700C6971307F5FF2B
:100DA00063E4170163E5D7263A85958F33D7E703C8
:100DB000420313530301B3F7E703B30ED703C2078C
:100DC000B3E7670063FBD701C6979306F7FF63E5B8
:100DD0001701791763E3D70136874205598D828061
:100DE00063E1D504C16763E1F604B707000163E37B
:100DF000F61E13D786016148971700009387073EB8
:100E0000BA979823130E00024297330EEE40631AEE
:100E10000E0C63EDB61C3335C50013451500814536
:100E200082808145014582809307F00F63F3D71CD0
:100E300013D786002148C9B71307F00FC686E37E93
:100E400017F193D68800A14709BF1307F00FB286A8
:100E5000E37BC7E493568600A147B1B5B398F80089
:100E600033D6D50013DF0801335EE6033397F50070
:100E7000B356D500558F939E080193DE0E013313B0
:100E8000F50093550701B376E603B387CE03C20698
:100E9000CD8E63FBF600C6961306FEFF63E41617BD
:100EA00063F2F616791EC6969D8E33D6E603931727
:100EB0000701C183B3F6E6033385CE02139706011B
:100EC0005D8F637BA70046979307F6FF6368171350
:100ED0006376A7127916469793150E01098FD18D67
:100EE0004DB5B357E600B396C601DD8E33D3E500AA
:100EF00013DF0601B357E303939E060193DE0E0151
:100F00003398C5013357E50033680701935808014A
:100F10003316C6013373E303B385FE024203B3689D
:100F2000130163FBB800B6981387F7FF63EAD80C88
:100F300063F8B80CF917B698B388B84033D7E8030C
:100F4000420813580801B3F8E8033383EE02C208DD
:100F5000B3E5080163FB6500B6951308F7FF63ED81
:100F6000D50863FB65087917B695C207416FD98F1D
:100F70001307FFFFB3F6E70093D80701718F418293
:100F8000B38EE602B3856540B386C60213D80E0160
:100F90003387E802BA96C2963386C80263F3E60046
:100FA0007A9693D80601469663E2C5026385C5002A
:100FB0003E858145828041677D17F98EC206B3FE6A
:100FC000EE003315C501F696E374D5FE1385F7FFE1
:100FD0008145828013D70601414839BD93560601E9
:100FE000C147D1B193D60801C14785BB81450545AD
:100FF00082803687014809B5428785BF3E86E9BDB4
:10100000BA871DBF328E4DB579154698E5B9791569
:10101000C69761BB39713EDA2ED232D436D63AD871
:1010200042DC46DE9387C18022CC804326CA06CEAE
:10103000AA8409C41C4C99E32285E5280C44541069
:101040002686228536C6612EF2406244D244216152
:10105000828001119387C18022CC804306CEAA856D
:1010600019C41C4C89E72AC62285E120B2451044E8
:1010700022856244F24005616F00D019411122C4FB
:1010800006C62A844EA572A523200500232205004A
:10109000232405002322050623280500232A050012
:1010A000232C0500214681451305C505EFF04F8B24
:1010B00097170000938707A15CD0971700009387CC
:1010C00027A31CD497170000938707A75CD4971712
:1010D0000000938767A900D01CD8B2402244410188
:1010E0008280971500009385A5DCA9A2411126C234
:1010F000130680069384F5FFB384C4024AC02E8988
:1011000022C406C693854407592A2A8401CD232088
:10111000050023222501310508C413868406814574
:10112000EFF00F842285B2402244924402494101EB
:1011300082801C4DADE3411106C622C49707000012
:10114000938767FA1CD5938701819C432324050468
:1011500023260504232805046314F50085471CCDC8
:101160002A841D2848C02285052808C422852D20F0
:1011700048C4484001469145113708440546A545F5
:10118000F53D48440946C945D53D85471CCCB2408C
:10119000224441018280828041119387018126C2CD
:1011A00084434AC006C69C4C22C42A8999E32685FA
:1011B0004937938484048044DC40FD1763D60700DC
:1011C0009C40B9CF8440C5BF0317C40039E7C1773D
:1011D000850723220406232004002322040023245D
:1011E00004005CC423280400232A0400232C0400E8
:1011F000214681451305C405EFE09FF6232A04022A
:10120000232C040223240404232604042285B24050
:10121000224492440249410182801304840671BF32
:1012200091454A85E13588C051FDB1472320F90039
:101230000144E9BF797122D44AD052CC56CA5AC867
:101240005EC606D626D24ECE2A8AAE8A13048504FE
:101250000149054BFD5B09ECB25022544A8592547A
:101260000259F249624AD24A424BB24B45618280EE
:10127000044483294400FD1963D409000040E1BF00
:10128000DE24637BFB008397E40063877701A685F8
:101290005285829A3369A90093848406E9BF0111BB
:1012A00026CA93843500F19806CE22CC4AC84EC691
:1012B000A104B14763F5F404B14463E4B4042A899A
:1012C000EF00D0579387418298433A8429E493876B
:1012D00081829C4399E781454A85EF00C07B23A426
:1012E000A182A6854A85EF00007BFD596319350769
:1012F000B1472320F9004A85EF00705429A0E3DEAE
:1013000004FAB1471CC10145F2406244D24442494B
:10131000B249056182801C40858F63CF0702AD46CC
:1013200063F6F6001CC03E9404C031A05C40631319
:10133000870223A2F1824A85EF0070501305B400A2
:101340009307440061993307F5405DDF3A94898F34
:101350001CC05DBF5CC3C5B72287404085BF130476
:1013600035007198E30285FCB305A4404A85252722
:10137000E31C35FBB5BF1C46FD171CC663DA07002E
:10138000184E63C5E700A9476394F5006F00E07D40
:101390001C422E851387170018C28CA3828001116E
:1013A00022CC26CA4AC84EC652C406CE2A89AE8965
:1013B0003284B304D6007D5A63149400014501A819
:1013C0000C204E864A85453F0504E31745FFF24051
:1013D0006244D2444249B249224A05618280357151
:1013E00022CD26CB4AC94EC706CF52C556C35AC1D5
:1013F000DEDEE2DCE6DAAA89AE843289368401C513
:101400001C4D91E33D3397170000938727EF6398B6
:10141000F40C83A44900DE24A18BE5C79C48F5C3E6
:1014200093070002A304F1029307000302D22305ED
:10143000F10222C6930B5002971A0000938A0AF019
:10144000054C294B4A841C2099C3639E770DB30C2D
:101450002441638D0C00E6864A86A6854E85813739
:10146000FD576301F51E9256E69636D21C20638B1B
:10147000071CFD571309140002C802CE3ECA02CC55
:10148000A309010482D48345090015465685EF005F
:10149000703913041900C24749E913F7070109C756
:1014A00013070002A309E10413F7870009C7130714
:1014B000B002A309E104834609001307A002638E6A
:1014C000E606F2474A848146254618209305140013
:1014D000130707FD6376E60AADCA3ECEBDA0971797
:1014E00000009387A7E36395F40083A4890025B7E0
:1014F00097170000938787DEE39FF4F083A4C90069
:1015000019BFA6854E85812F01DD7D55FA406A44BD
:10151000DA444A49BA492A4A9A4A0A4BF65B665C57
:10152000D65C0D618280050439BF33055541331502
:10153000AC00C98F3EC82289B9B73247930647002D
:10154000184336C6634707023ACE18209307E002D5
:10155000631DF70418309307A002631BF702B2471C
:101560000904138747009C433AC663C107023ECA79
:101570002DA83307E04093E727003ACE3EC8F1B7E5
:10158000B387670385462E84BA9781B7FD57C5B7E1
:10159000050402CA81468147254618209305140098
:1015A000130707FD6376E606F9F20C200D461715C2
:1015B0000000130525D9EF00F02611CD9717000084
:1015C000938747D81D8D93070004B397A700424522
:1015D00005045D8D2AC80C20194617150000130557
:1015E000A5D6130914002304B102EF00B02335C1BE
:1015F00097F7FFFF938707A195E74247B247137715
:10160000071009CF91073EC69257D2973ED21DBD13
:10161000B387670385462E84BA9741B79D07E19B40
:10162000A107D5B7780097060000938686D726864F
:101630000C084E8597000000E7000000FD572A8A3D
:10164000E314F5FCDE2493F70704E39007EC12554E
:1016500075BD7800970600009386A6D426860C08F0
:101660004E85012AE1BF797156CA9C49BA8A9845CC
:1016700022D426D24ECE52CC06D64AD05AC85EC606
:10168000AA892E84B284368A63D3E700BA879CC0C5
:101690000347340419C385079CC01C4093F7070215
:1016A00081C79C4089079CC0032904001379690005
:1016B000631A0900130B9401FD5B5C449840998FF9
:1016C000634CF9041C408346340493F70702B33695
:1016D000D000A5EB13063404D2854E85829AFD57BF
:1016E0006303F5041C4011469840998B544481448F
:1016F0006397C700B384E64063D3040081441C446D
:1017000018486354F700998FBE94014969047D5BC2
:1017100063982405014509A885465A86D2854E85D9
:10172000829A631E75017D55B2502254925402591B
:10173000F249624AD24A424BB24B45618280050966
:10174000ADBF3307D40013060003A301C70403474A
:10175000540493871600A2978906A381E7049DBFCE
:1017600085462286D2854E85829AE30E65FB050961
:1017700045B7797122D426D24AD04ECE06D652CC65
:1017800056CA5AC8B689942D930790063289AA84FE
:101790002E8413863504638DF60263E2D706930721
:1017A00080056386F61863EDD700638E06209307E5
:1017B0003004638FF60A930A24042301D404D1A0D1
:1017C000930730066386F60A93074006E395F6FE14
:1017D0001C40084393F6070893054500CDC61C41FD
:1017E0000CC363D807001307D002B307F040A3016E
:1017F000E404971600009386A6B529476DA89307C1
:1018000000076382F61663E5D7029307E006638953
:10181000F6189307F006E390F6FA0C401C4313F811
:101820000508138547006308080608C39C438DA874
:1018300093075007E383F6FE930780076389F61248
:1018400093073007E399F6F61C43D0418145938610
:10185000470014C383AA07005685EF00A07C01C58A
:101860003305554148C05C401CC8A301040461A86D
:101870001C43930A2404938647009C4314C323010A
:10188000F4048547D5B793F607041C410CC3B1DABD
:10189000C207C187B9B793F5050408C3C1D99E2310
:1018A0001307F0066386E60E97160000938646AA95
:1018B0002947A30104044C400CC463C5050008403B
:1018C0006D9908C099E3B28A89CDB28AB3F5E7026F
:1018D000FD1AB6958C212380BA00B3D5E70263FFC9
:1018E000E70AA147631EF7001C40858B91CB584047
:1018F0001C4863C7E70093070003A38FFAFEFD1A95
:101900003306564110C84E87CA867000A2852685C8
:10191000993B7D5A631D450B7D55B250225492541C
:101920000259F249624AD24A424B45618280A382FF
:10193000D504971600009386A6A10C40084313F81F
:1019400005081C411105630D080208C313F71500B3
:1019500001C793E505020CC04147A1FF0C4093F578
:10196000F5FD0CC0B9B79C4193E707029CC19307F2
:101970008007A302F404971600009386A69E75BF05
:1019800013F8050408C3E30308FCC207C1837DBF45
:10199000971600009386C69B214721BFAE873DB7AF
:1019A00094411C43CC4913F806081385470063068D
:1019B000080008C39C438CC339A008C393F60604EF
:1019C0009C43F5DA8EA323280400B28A2DBF144865
:1019D0005686CA8526858299E30045F51C40898B89
:1019E0008DE7B2474844E35AF5F23E853DB7854658
:1019F0005686CA8526858299E30065F3050A5C440C
:101A00003247998FE345FAFEE9BF014A930A9401F0
:101A10007D5BF5B7011122CC06CE2A8409C91C4D85
:101A200099E732C62EC4EFF0CFF03246A2459717A1
:101A300000009387A78C6315F60250401C46FD17E3
:101A40001CC663DF0702184E63C7E70093F7F50F64
:101A500029476397E70222856244F240056131A27B
:101A6000971700009387878B6314F6001044F9B72B
:101A70009717000093878786E312F6FC50447DBFDA
:101A80001C4213F5F50F1387170018C28CA3F24000
:101A9000624405618280411122C42A842E8523A6D6
:101AA000018206C6EFF08F9BFD576317F500938701
:101AB000C1829C4391C31CC0B24022444101828038
:101AC000411122C42E848395E50006C6212D634969
:101AD00005007C48AA977CC8B2402244410182801C
:101AE0005E247D777D17F98F5EA4FDB7DE25011199
:101AF00022CC26CA4AC84EC606CE93F70710AA843F
:101B00002E843289B68991C78395E50089460146BE
:101B100009215E247D777D17F98F5EA48315E4008B
:101B20006244F240CE864A86B24942492685D24472
:101B30000561DDA8411122C42E848395E50006C607
:101B4000C92EFD575A24631AF500FD77FD17F98F4A
:101B50005EA4B2402244410182808567D98F5EA491
:101B600068C8C5BF8395E500F5A2011122CC26CA3D
:101B70004AC806CE4EC6AA842E89328409C51C4D99
:101B800099E3EFF00FDB9707000093872777631740
:101B9000F406C0401C4C1CC45E24A18BC1C31C486D
:101BA000B5CF1C4808409379F90F1379F90F1D8DB3
:101BB0005C486346F500A2852685CD2C25E51C44AE
:101BC0000505FD171CC41C401387170018C023808F
:101BD00037015C486388A7005E24858B81CBA947C9
:101BE0006316F900A2852685D1240DEDF2406244EA
:101BF0004A85D2444249B249056182809707000074
:101C00009387C7716314F400804469B79707000095
:101C10009387C76CE310F4F8C044ADBFA285268556
:101C20001D2841D17D59D9B7411122C42A842E855E
:101C3000B285368623A6018206C6EFE09FFEFD57D9
:101C40006317F5009387C1829C4391C31CC0B240C7
:101C500022444101828041119387C18026C284437E
:101C600022C44AC006C62A892E8491C49C4C81E7AE
:101C70002685EFF00FCC9707000093872768631B3A
:101C8000F402C0400317C40093170701C18393F601
:101C90008700ADEA93F6070195EEA5472320F900EA
:101CA000136707045AA47D55B24022449244024966
:101CB0004101828097070000938747666314F40010
:101CC0008044C9B79707000093874761E31CF4FA83
:101CD000C0444DBF918B9DC34C5889C993074404A0
:101CE0006384F5004A85A92E232A04025E24232258
:101CF000040093F7B7FD5EA41C481CC05E2493E764
:101D000087005EA41C4899EB5E241307002093F71C
:101D100007286385E700A2854A85AD2C5E2413F76A
:101D200017001DC35C4823240400B307F0401CCCFB
:101D30001C480145B5FB8317C40013F707082DD7CE
:101D400093E707045EA485B7898B014791E3584860
:101D500018C4F9BF411122C42A842E8523A601820A
:101D600006C60121FD576317F5009387C1829C4386
:101D700091C31CC0B240224441018280DE25011182
:101D800022CC26CA06CE4AC84EC613F78700AA84BC
:101D90002E8479EBD841634DE000B841634AE000FE
:101DA0000145F2406244D2444249B2490561828011
:101DB00058547DD703A904009396370123A004004B
:101DC00063DB060670485E24918B99C75C401D8ECC
:101DD0005C5899C33C401D8E5C540C50814626854E
:101DE0008297FD575A24631DF5009440F54763E838
:101DF000D706B70740208507B3D7D700858BA5C383
:101E00001C48232204001CC09317370163D8070025
:101E1000FD576314F5009C4091E368C84C5823A01B
:101E20002401BDDD930744046384F5002685092C55
:101E3000232A0402B5B70C50014685462685029731
:101E4000FD572A86E311F5F89C40B5DF7547638599
:101E5000E70059476393E70423A0240191B7136770
:101E600007045AA47D5535BF83A90501E38A09F209
:101E700003A905008D8B23A03501330939410147A2
:101E800091E3D84918C4E35D20F11C540C50CA8674
:101E90004E86268582976347A0005E2493E7070459
:101EA0005EA4C9B7AA993309A940F1BF9C49A5C34B
:101EB000011122CC06CE2A8419C51C4D89E72EC6F5
:101EC000EFF02FA7B2459707000093872743639B46
:101ED000F5004C408397C50095C722856244F240C7
:101EE000056169BD97070000938747436394F50038
:101EF0000C44CDB7970700009387473EE39CF5FC61
:101F00004C44C9BFF24062440145056182800145ED
:101F10008280411122C42A842E85B285368623A66A
:101F2000018206C68D24FD576317F5009387C18291
:101F30009C4391C31CC0B24022444101828019716C
:101F4000A6DAAE848395E500A2DC86DE328463DB0C
:101F50000500DE2423A0060093F707089DE39307FE
:101F6000004015A0300836C66522B246E34305FEA0
:101F70007247BD67F98F7977BA9793B717009CC2FC
:101F8000F9BF930700041CC0F6506654D6540145AF
:101F900009618280DE25011122CC06CE26CA4AC8FC
:101FA000898B2E8489CF930774041CC01CC8854775
:101FB0005CC8F2406244D2444249056182807400A8
:101FC0003000AA84AD3FA2452A892685EFF02FADC7
:101FD00019E98317C40013F7072061FFF19B93E70A
:101FE00027005EA4C9B797F7FFFF9387C70F9CD45C
:101FF0005E2408C008C893E707085EA4A2475CC82F
:10200000B24799CB8315E4002685052A11C55E24C5
:10201000F19B93E717005EA45E243369F900231651
:10202000240141BF93F5F50F2A966314C5000145BD
:1020300082801C21E38EB7FE0505C5BF82808280A9
:10204000CDC183A7C5FF411122C406C626C2138491
:10205000C5FF63D307003E94AA84CD37938741829E
:102060009C4399EB2322040023A281822244B240A4
:10207000268592444101E1B7637EF40014403307A2
:10208000D4006396E7009843DC43369718C05CC0E1
:10209000E1BFBA87D84319C3E37DE4FE9443338696
:1020A000D700631F86001040B29694C33386D700D2
:1020B000E31EC7FA10435843B29694C3D8C37DB702
:1020C0006375C400B1479CC055B71040B306C40047
:1020D0006316D70014435843B29614C058C0C0C307
:1020E00071B78280411122C42A842E85B28536863A
:1020F00023A6018206C67128FD576317F500938752
:10210000C1829C4391C31CC0B240224441018280E1
:10211000411122C42A842E85B28523A6018206C6D7
:10212000B920FD576317F5009387C1829C4391C383
:102130001CC0B240224441018280411122C42A8441
:102140002E8523A6018206C60D28FD576317F500CC
:102150009387C1829C4391C31CC0B2402244410179
:1021600082809307800523A6F1827D5582809307A4
:10217000800523A6F1827D5582809307800523A6E2
:10218000F182014582809307800523A6F1827D5567
:1021900082809307800523A6F1827D55828000000E
:1021A0008C030000A0030000A6030000B0030000A1
:1021B00053797374656D436C6B3A25640D0A0000A6
:1021C0004368697049443A253038780D0A000000A8
:1021D00025640D0A0000000000010202030303034E
:1021E00004040404040404040505050505050505A7
:1021F0000505050505050505060606060606060687
:10220000060606060606060606060606060606066E
:102210000606060606060606070707070707070756
:10222000070707070707070707070707070707073E
:10223000070707070707070707070707070707072E
:10224000070707070707070707070707070707071E
:102250000707070707070707080808080808080806
:1022600008080808080808080808080808080808EE
:1022700008080808080808080808080808080808DE
:1022800008080808080808080808080808080808CE
:1022900008080808080808080808080808080808BE
:1022A00008080808080808080808080808080808AE
:1022B000080808080808080808080808080808089E
:1022C000080808080808080808080808080808088E
:1022D00008080808080808080000000000000000BE
:1022E00000000000000000000000000000000000EE
:1022F00000000000000000000000000000000000DE
:1023000000000000000000000000000000000000CD
:1023100000000000000000000000000000000000BD
:1023200000000000000000000000000000000000AD
:102330000000000000000000232D302B20000000D2
:10234000686C4C00656667454647000030313233A3
:1023500034353637383941424344454600000000A1
:10236000303132333435363738396162636465660B
:042370000000000069
:102374000000000000000000010203040607080931
:102384000000000001020304010203040607080917
:1023940000000000F822000018230000D8220000EA
:1023A4000000000000000000000000000000000029
:1023B4000000000000000000000000000000000019
:1023C4000000000000000000000000000000000009
:1023D40000000000000000000000000000000000F9
:1023E40000000000000000000000000000000000E9
:1023F400006CDC0202040608B0000020200000206B
:08240400200000200000000090
:00000001FF
