:040000006F00907D80
:100004000000000000000000080200000A020000D6
:1000140000000000D60F00000000000000000000F7
:10002400D60F0000D60F0000000000000000000002
:100034000208000000000000D60F000000000000CD
:10004400D60F0000D60F0000D60F0000D60F000018
:10005400D60F0000D60F0000D60F0000D60F000008
:10006400D60F000040050000D60F0000D60F000098
:10007400D60F0000D60F0000D60F0000D60F0000E8
:10008400D60F0000D60F0000D60F0000D60F0000D8
:10009400D60F0000D60F0000D60F00009A0500000E
:1000A400D60F0000D60F0000D60F0000D60F0000B8
:1000B400D60F0000D60F0000D60F0000D60F0000A8
:1000C400D60F0000D60F0000D60F0000D60F000098
:1000D400D60F0000D60F0000D60F0000D60F000088
:1000E400D60F0000D60F0000D60F0000D60F000078
:0C00F400D60F0000D60F0000D60F000051
:10010000397101436EC619A0397141536AC866CA74
:1001100062CC5ECE19A0397101535AD056D252D456
:100120004ED64AD826DA22DC06DE330161408282CE
:1001300041114AC026C222C406C68282B24D410184
:10014000024D924C224CB24B4101024B924A224A40
:10015000B2494101024992442244B24041018280A5
:100160003D432A876373C3029377F700BDEFADE584
:10017000937606FF3D8ABA960CC34CC30CC74CC796
:100180004107E36BD7FE11E28280B306C3408A06C3
:100190009702000096966780A6002307B700A30683
:1001A000B7002306B700A305B7002305B700A304D3
:1001B000B7002304B700A303B7002303B700A302CB
:1001C000B7002302B700A301B7002301B700A300C3
:1001D000B7002300B700828093F5F50F9396850052
:1001E000D58D93960501D58D61B79396270097021B
:1001F000000096968682E78086FA9680C1171D8F4A
:100200003E96E374C3F8A5B701A001A05C217D4729
:100210006368F7021C451307601FB387F540938698
:10022000F7C76360D7021C4185831CC11C41860748
:1002300085831CC15C21850793F7F70F5CA10CC572
:1002400082809387F78F1307E03E636AF7001C41B3
:100250003707008085831CC11C41D98FD9BF23205B
:10026000050023020500E1BFEFF29FEC2A84692616
:10027000AA8509E413854185513FE9BD8547E31E01
:10028000F4FE13850186CDBF3707040293172500BE
:100290001307C7DFB706FE01F98F9386E61F131712
:1002A0001500758FB98F370704009306F7FFE98EA5
:1002B000B58F13561500B7060200758EB18F938661
:1002C00006C013562500F18EB58F130607E093562E
:1002D0003500F18E37060E00B58F1306C63F9356D4
:1002E0004500F18EB58F130727E093565500758FA3
:1002F000B98F93D6070113D78700358F3D8FE183E0
:10030000B98FE2073D8D8280938741852382070064
:100310009387018623820700054723A2E18282801A
:100320009387C186C14694C3A146D4C381458947FA
:100330001387C18605460D4E930820049386170047
:10034000138327008A073318B600BA978A063378D2
:10035000A80090C3BA966300080223A0C6018505D1
:100360009A87E31D13FD85472324F7102326F710F2
:1003700023800182828090C2DDB7EFF27FDB79714A
:1003800085452545EF10000F85450945EF106010A4
:100390008947FC8237150140E1473ECE4C088D4726
:1003A000130505C0370400403ECCEF0010559307FD
:1003B000204F2C00130504403EC602C4EF10400F2E
:1003C000C167938707063ED00C109307802513055D
:1003D00004402313F10223140102EF10601D1305E2
:1003E0000440A145EF100028854513050440EF1097
:1003F0006024456185B3EFF2BFD391454545A12601
:1004000037050040854513050540EF10202199B3BD
:10041000EFF21FD237050040814513050540EF106C
:10042000E01F85454545052681454545512E1DB3AF
:10043000EFF21FD0411123A201822EC62AC4A93592
:10044000C535253FF13713878182854614C39387CD
:10045000818298437DFF4D3D4101EDB9EFF25FCDC3
:10046000938781829C43BDC3938701829C23094764
:1004700093848182E207E187B3E7E70205471384AB
:1004800001826396E7049C4091C359371C2013876F
:10049000C186E207E1878A07BA979443FD1694C3A1
:1004A0001C20E207E1878A073E971C436347F00060
:1004B0001C208507E207E1871CA01C2013073004DD
:1004C000E207E1876354F70023A0040061B19C4078
:1004D000D5DF153765BFEFF2BFC50111854505456D
:1004E000EF0070778D450145EF00B06295450145FD
:1004F000EF0030620544A147314908083EC84ACCA4
:1005000022CE02CAEF00503693079011894428008A
:100510007C84448522C6EF00F0629307000208083D
:100520003EC84ACC22CE02CAEF00103493077012A4
:1005300028007C84448522C6EF00D060056119B98B
:1005400039712AD6214506DE16DC1ADA1ED82ED4D9
:1005500032D236D03ACE3ECC42CA46C872C676C4F3
:100560007AC27EC0EF00F03611C52145EF00503849
:100570000145DD39F250E2525253C2533255A25571
:10058000125682567247E2475248C248324EA24E35
:10059000124F824F21617300203039712AD6130522
:1005A000000206DE16DC1ADA1ED82ED432D236D07D
:1005B0003ACE3ECC42CA46C872C676C47AC27EC023
:1005C000EF00303119C513050002EF007032054508
:1005D0006139F250E2525253C2533255A25512566B
:1005E00082567247E2475248C248324EA24E124FDC
:1005F000824F216173002030EFF29FB3B7F700E024
:100600009847DC4703A6818383A6C1833305C700CF
:10061000B335E5003387D70003A68180B7470F00C5
:10062000938707243356F6028146BA95EF10201CB3
:1006300015B6EFF2FFAFC9371306803E8146EF10C3
:10064000001B09BEEFF2DFAE2A84E537B304A40035
:1006500033B484002E94F13F63E785006314B40043
:1006600063639500C5BC0100FDB7B7F700E023A2A6
:100670000700814694C70147D8C788CBCCCB3D47FC
:1006800098C3B7E700E005472386E740056723A046
:10069000E71023A8A18223AAB1828280BD4763D03C
:1006A000A702FD4763D2A7021307F0038147634601
:1006B000A700B7170140938707403E858280B71790
:1006C000014093870780D5BFB7170140938707C0C4
:1006D000EDB7BD4763DFA7007D47A1476359A7007A
:1006E0001307F00381476344A700930700023E8588
:1006F00082809147EDBFEFF2BFA3411185451545BB
:10070000EF00505737053000854513050540EF00D1
:10071000303137140140996711498D444C0013055D
:1007200004807C824AC626C423130100EF00F01C1B
:10073000A1474C00130504807C824AC626C4EF0002
:10074000D01B410101BCEFF2BF9E930735FF93F729
:10075000F70F05474111AA842E846363F700613FB8
:100760002685853F8545EF00F05013F7F400854757
:10077000B397E7009305F4FF7C822313010093F500
:10078000F50F8D4763EAB7028D679387C7C58A0562
:10079000BE959C418287C1473EC626858D473EC493
:1007A000F53D4C00EF00701541016DB293078004D8
:1007B000E5B793078002CDB79147F9BFE147E9BF9D
:1007C000EFF21F9741112EC62A84C93D3D88854707
:1007D000B3978700324693950701C181EF00B0229D
:1007E00041016FF03F97EFF2BF942A84453D3D8869
:1007F0008545B3958500C205C181EF00301F6FF0BC
:100800007F95B7F700E023A2070003A8018383A820
:100810004183938781839043D44333070601333563
:10082000C700B3851601B306B50098C31945D4C3F4
:100830005D3F11E5938701849843050798C33939D3
:1008400073002030EFF2DF8E814537050040EF0066
:10085000F05CB7070040239C070285450545E53558
:1008600081450545B13F6FF0FF8E83A78180B73684
:100870006300938636F033D7A70263E5E6024207AA
:100880004183930640063357D702B70600409AB615
:10089000B3D7E702B3D7A702C207C183DEB6858309
:1008A0009EBE82804167130787DEC5B7EFF25F887F
:1008B0000111AA8485451545EF00D03B85450545C6
:1008C000EF00303D91450545BD3D03A78180B7361A
:1008D0006300938636F0B357970263EAF606C207C1
:1008E000C18393064006B3D7D7024C0037050040BA
:1008F000231301003354F702FD177C829307001085
:100900007C8533549402420441806084EF00503A65
:10091000C1679387070605800C08370500403EC86D
:10092000E083231C0100EF00503FA1453705004044
:10093000EF00F051854537050040EF00B04F854589
:1009400037050040EF00904D05616FF0BF80C16733
:10095000938787DE59BFEFF2AFFD4111854505450D
:10096000EF005031854513050002EF00B03085459A
:100970002165EF00F00A85477C8237150140C147A9
:100980003EC64C008D47130505403EC423130100AD
:10099000EF00A07681471387C197BD463306F70065
:1009A000230006008507E39BD7FE41016FF08FFA15
:1009B000B717014093870740054798CB29C5010029
:1009C000010001000100010001000100010001001F
:1009D000010001000100010001000100010001000F
:1009E00001000100010001000100010001000100FF
:1009F00001000100010001000100010001000100EF
:100A00000100D8CB8280010001000100010001003B
:100A100001000100010001000100010001000100CE
:100A20000100D8CB0100010001000100010001001C
:100A300001000100010001000100010001000100AE
:100A40000100010001000100010001008280EFF2BD
:100A50008FEC4111AA8932891D44FD5433D585405C
:100A600005892EC67D14A937B245E31994FE1D44AD
:100A7000FD5433D5894005897D141D3FE31B94FE49
:100A80001D44FD543355894005897D141537E31BFA
:100A900094FE41016FF06FEBA20542052E95329551
:100AA00082808D473307F50213D6850093D6050162
:100AB0001376F60F93F6F60F9387C19711E594A37B
:100AC00090B3BA97ACA382803385E70010A114B12C
:100AD000CDBFEFF2EFE52A89014495442285CA850E
:100AE0000504C137E31C94FE6FF0CFE6EFF24FE44C
:100AF0009307800873B007801384C1979304F400B0
:100B000030200C3008200D049937E31B94FE8567D4
:100B10009387C7DA0100FD17F5FF9307800873A0DC
:100B200007806FF02FE3EFF2AFE013165500931537
:100B300065001E051376060893F50508137505086C
:100B4000A13F6FF02FE1EFF2AFDE594569398547DC
:100B500011C95D454939894711C501456931933747
:100B600015008A073E856FF0EFDEEFF26FDCE13FA4
:100B700013844180184081476305E500E937AA875F
:100B800008C03E856FF00FDDEFF28FDA112E0545BC
:100B9000EF00E07A552E716513050520EF007039DE
:100BA00083A58180373500001305C5C6EF00507D51
:100BB0007D21AA85373500001305C5C7EF00507C9D
:100BC00089455945493689455D45B53E89450145C3
:100BD0009D3E85454545853E81454545D5368945FA
:100BE000194595361D651305C58F8145EFF0FFA7A3
:100BF00089450D45893E89451545B136EFF0BF8DD4
:100C0000EFF08FF0893B6FF0EFD4EFF26FD2014637
:100C1000814501455135753D014681451305F00F6C
:100C2000A53DAA850545B53DD1351305800CEFF0EE
:100C30007FA101469305F00F0145B93DAA85054501
:100C40008D35014681451305F00FB935AA85094553
:100C5000893D693D1305800CEFF0DF9E1306F00F10
:100C600081450145153DAA850545253D014693056C
:100C7000F00F01451535AA85094525350146814501
:100C80001305F00F113DAA850D45213D853513054E
:100C9000800CEFF03F9B0146930500081305000808
:100CA000E53BAA850545F53B1306F00F8145014557
:100CB000E533AA850945F53301469305F00F014553
:100CC000E13BAA850D45F13B014681451305F00F37
:100CD000E133AA851145F133113D1305800CEFF086
:100CE0007F961306000593050005130500056D3377
:100CF000CD33ED3B13051040553E13056004EFF076
:100D00007F9405651305A58255361305401FEFF046
:100D10007F930D3E1305401FEFF0DF9201468145A2
:100D200001459D3B7D33D9336FF0CFC2EFF24FC009
:100D300013050031EFF09FB713053002EFF09F90DD
:100D400013050062EFF09FB613053002EFF09F8F9E
:100D50000565130505C4EFF07FB513053002EFF00C
:100D60007F8EEFF03FAE6FF0EFBEEFF2CFBA13849D
:100D700041800840856911497D33AA840145913B32
:100D8000A6850545393B9D332945EFF0BF8B0145CD
:100D90008933A68509453133913B13052003EFF0D4
:100DA0007F8A01453D33A6850D45E539813313051D
:100DB0000005EFF03F890145293BA6851145D53156
:100DC000353300409307401F938A89383304F40277
:100DD000130A0032420441805685EFF03FAD938400
:100DE00089383305940042054181EFF01FA8294559
:100DF000938444EDEFF01F85E39544FF7D19EFF0F8
:100E00007FA4E31B09FC6FF04FB4EFF26FB2014611
:100E100081450145EFF05FC8EFF0BFCB0144B70457
:100E2000002083A7040863D58700C9316FF08FB213
:100E300003A54180CD39AA852285EFF09FC6050420
:100E4000CDB7EFF2EFAEB70401F041119384E4FCAB
:100E5000293B19C52945EFF0EFFE013B65FDF9354A
:100E600083A7018481EB5537E5B7294523A0018489
:100E7000EFF04FFD83A70184EDFB03A54180B24550
:100E80001D890605658D136505012AC4EFF04FDA4B
:100E9000E93DD1BFEFF2CFA9EFF01FCFBD335537FA
:100EA000B71702409843B706FFF01367170098C3BF
:100EB000D843758FD8C39843B706F7FEFD16758FD4
:100EC00098C39843B706FCFFFD16758F98C3D843A7
:100ED000B70601FFFD16758FD8C337079F0098C767
:100EE000B746024003A706801367070123A0E680E8
:100EF000D843B706C1FFFD16D8C3D843D8C3D843DB
:100F000013670740D8C3D843758FD8C3D843B706F3
:100F10001000558FD8C39843B7060001558F98C36A
:100F2000984393166700E3DD06FED843B7160240E8
:100F3000719BD8C3D84313672700D8C32147DC422D
:100F4000B18BE39EE7FE8280B7160240DC42114679
:100F5000B18B138781806385C70021466388C702F0
:100F6000B7177A00938707201CC3B7170240DC43EA
:100F7000918393F6F700B707002093870700B69791
:100F800094231C43B3D7D7001CC38280DC42D442D5
:100F90004166C983BD8BF18E890745466393C700BF
:100FA000C94781EEB746024083A60680C18A89CE32
:100FB000B7167A009386062021A8B7160240D442BD
:100FC0001396E600E35606FEB7163D00938606909C
:100FD000B387D70251BF01A0970100209381818A76
:100FE000172100201301018217250000130505E4D5
:100FF00097F5FF1F938505011386018263FAC500EB
:101000008322050023A0550011059105E3EAC5FEE2
:1010100013850182938501996377B500232005002C
:101020001105E36DB5FEFD42739002BC8D427390D5
:101030004280930280087390023097F2FFFF938200
:10104000A2FC93E2320073905230EFF07FE59702FA
:101050000000938262E47390123473002030B7F77B
:10106000FF1F03A5477082805841032805004C45A7
:1010700037060140930706403E979346F8FFB1C5F7
:1010800083250640F58D2320B640D043F18ED4C38E
:101090001443B3E6060114C3184190479346F7FF83
:1010A000758E90C7D047F18ED4C7144541466399D9
:1010B000C6009447D98E94C7D447558FD8C782802D
:1010C000B6979443558F98C382801C43F58F1CC3F9
:1010D0008280B70701401387074083A70740584B1A
:1010E000698F09C77D8D3335A000828001458280DC
:1010F000B707014023AAA74082809C4513F7070148
:1011000013F8F70001C7D8413368E80037270240D9
:10111000145B3707000F758F4DEB85462382D18412
:10112000371701406315E5009A2135839AA18E2176
:1011300013F7F50F39C318418146854E3D4F930F84
:10114000800293028004214E3396DE00B3F8C5007E
:10115000631116039398260033131F011343F3FF03
:101160003377E300B318180133E7E8006397F70714
:1011700050C98506E39AC6FD18C11307F00F6375C1
:10118000B70454412146854E3D4F930F8002930290
:101190008004414EB398CE0033F715016392E80204
:1011A0001317260001173313EF001343F3FFB37631
:1011B000D3003317E800D98E6395F703232A15016E
:1011C0000506E319C6FD54C1828037170140E310BC
:1011D000E5F603C7418421DF81BFE39C57F810C9BE
:1011E00049BFE39F57FC23281501D9BFB71701401A
:1011F0006316F50083C7418491C3B58108456D8DA1
:101200003335A0008280B71701406316F50083C70D
:10121000418491C3B58119C20CC982804CC98280B6
:10122000B7070140635A0504DC4F935605011318B4
:1012300005013707300013F6F60013580801B3769E
:10124000E500635E05066399E604930606010D4614
:10125000B316D60093C6F6FFF58F99C913575501FB
:101260001377F73F12073317E800D98F6355050648
:10127000370701405CCF828037270240145BDC4394
:101280003707000F758F55F313D71700F976CE0780
:10129000758FCD83D98F51BF1317B50063560700E3
:1012A0008D46B396C6007DB7135755011377F73FA8
:1012B00012073317E8001347F7FFF98F79BF6390E0
:1012C000E602370601405442370700F17D17F98FD7
:1012D000758F58C2C1F5370701405CC38280131770
:1012E000B500635C07008D46B396C60093C6F6FF53
:1012F000FD8EB707000FD58FF1BF135755011207A9
:101300003317E8001347F7FF7D8FB707000FD98F1A
:10131000D1B713F7C50F93F73500B7050140BA955C
:1013200094458A073D473317F7001347F7FF758F3A
:1013300098C598453315F500598D88C5828023A43A
:10134000A184828003A78184854714216310F7025A
:101350001C31639CE7023C21960793E707F837E7C7
:1013600000E093F7F70F36972300F740054793D730
:1013700056003317D700544189CE938707048A0754
:10138000B7E600E0B69798C38280EDF33C2196075C
:10139000F9B793870706E5B7371702405C439146D4
:1013A000B18B6385D700A1466382D706B7177A0051
:1013B000938707201CC1371602405C423707002084
:1013C000130707019183BD8BBA9794231C41B3D7B0
:1013D000D7005CC15442A1829D8ABA969422B3D6AA
:1013E000D70014C55442AD829D8A36971823B3D7CF
:1013F000E7005CC558423983937637001387C18074
:1014000036971823B3D7E7021CC982805C43584340
:10141000C166C983BD8B758F8907C5466393D700A5
:10142000C94701EF3747024003270780418B09CFA7
:1014300037177A001307072021A8371702405843AF
:101440009316E700E3D606FE37173D001307079013
:10145000B387E70285B799C5371702405C4B5D8DAE
:1014600048CB8280B7170240D84B1345F5FF798DE2
:10147000C8CB828099C5371702401C4F5D8D08CFBD
:101480008280B7170240984F1345F5FF798D88CFBA
:10149000828099C5371702405C4F5D8D48CF8280AE
:1014A000B7170240D84F1345F5FF798DC8CF82801A
:1014B0001E2137370140130707C0C207C1836304E9
:1014C000E502370700406300E50213070740630C9D
:1014D000E50037170040930607806306D500130721
:1014E00007C06316E500BA2193F7F7F8D98FFA2100
:1014F00093F7F7CFC207C183D98F1EA1DE215EB556
:101500009E211EB5B7370140938707C06314F500CD
:101510009C251EB985475EA982801E316577130719
:10152000F7CFC207C183BD9BC207C1831EB11E3165
:10153000562103D88500C20713960601162DC183D4
:1015400093F7F7FD758F96214182A206558FB6213C
:1015500042074183B3E606019206D58FB7360140B4
:10156000C207938606C0C183631ED502B62593F7D2
:10157000F7F703D8C5009206D58FD621C207C183DD
:10158000920693F7F7FBD58FFD769386F63FF18EA3
:10159000F225C207C183336606010A06D18E13966F
:1015A0000601418252A11AADFA211ABD1EB18280F4
:1015B0001A31FD77FD17F98F1EB103580502562128
:1015C0005E2D657792211307F7CF7D8FF97722067D
:1015D000FD17518FB3F70701B22103D88500C2066A
:1015E0004207336606013206D18F37360140C20703
:1015F000130606C0C1824183C183631AC500717698
:101600007D16F18ED2251A06D18EC206C18256A150
:101610005AADFA212310E5041EB182801E2189C52E
:1016200093E717001EA18280C207C183F99BC207FE
:10163000C183CDBF1E2189C593E707081EA1828003
:10164000C207C18393F7F7F7C207C183C5BF1A2D3D
:10165000FD779387F77FF98FA205CD8FC207C183EE
:101660001EAD82805A2DFD779387F77FF98FA205F3
:10167000CD8FC207C1835EAD8280EFE27FAB1629BA
:10168000F577FD17F58FF621DA257971D58F1EA92B
:101690005625FD779387379FF58FD6212A842EC64E
:1016A000D58F9625D58FB625D58F5EA55E29C20725
:1016B000C18393F7F7CFD98F5EA96808EFF0DFCD2C
:1016C000B747014093870780B245631EF402A257D3
:1016D0006547B387E7029841930640060A07B3D7E8
:1016E000E70233D7D702B3F7D702120792079387DF
:1016F0002703B3D7D702BD8BD98FC207C1831EA4DE
:1017000045616FE03FA59257E1B791C55E25096736
:10171000D98F5EA582805A25F977FD17F98FD5BF3D
:1017200093F5F51F4EA182800A216D8D3335A000FF
:101730008280EFE2FF9F01112A8485453705020070
:10174000EFF03FD585451145EFF0DFD291477C8220
:10175000371501408D473EC44C00E1471305058015
:101760003EC6EFF09F9922C837440040B7070800F3
:101770000C08130504403ECC02CA231E0100F53DAF
:10178000854513050440513705616FE0BF9CEFE2CA
:101790009F98B7440040AE89328901449384044045
:1017A000634524014A856FE05F9A9305000426850E
:1017B000A53F65DDB387890083850700268505047D
:1017C000C205C181B13FE9BF138701811C439386E4
:1017D00001993E95636BD500B726002093860600DD
:1017E00063E5A60008C33E858280FD57EDBFB6873E
:1017F000B2882A832E88639B061463F8C50A416762
:10180000636BE61AB70700016360F63493568601EE
:10181000E147171700001307A74736971823BA9711
:10182000130700021D8F19CB3398E500B357F5005D
:10183000B318E60033E807013313E50013D60801B7
:101840003355C80293960801C18293570301337739
:10185000C802B385A60242073368F700637AB8006E
:1018600046989307F5FF636418016365B8303E85B9
:101870003308B8403357C802420313530301337887
:10188000C802B386E602420833686800637BD8006A
:1018900046989307F7FF6365180179176363D800CB
:1018A0003E874205598D8145828001E60547B35840
:1018B000C702416763E8E80EB707000163EAF8284A
:1018C00093D68801E147171700001307673C369746
:1018D0001423BE9693070002958FFDE7939E08019F
:1018E0003387154113DF080193DE0E0185459357B9
:1018F00003013355E7033377E703B306D503420704
:10190000D98F63FAD700C6971307F5FF63E4170171
:1019100063E5D7263A85958F33D7E7034203135300
:101920000301B3F7E703B30ED703C207B3E76700BA
:1019300063FBD701C6979306F7FF63E51701791795
:1019400063E3D70136874205598D828063E1D50470
:10195000C16763E1F604B707000163E3F61E13D71E
:10196000860161489717000093878732BA979823BA
:10197000130E00024297330EEE40631A0E0C63ED15
:10198000B61C3335C500134515008145828081455D
:10199000014582809307F00F63F3D71C13D78600AD
:1019A0002148C9B71307F00FC686E37E17F193D617
:1019B0008800A14709BF1307F00FB286E37BC7E495
:1019C00093568600A147B1B5B398F80033D6D50039
:1019D00013DF0801335EE6033397F500B356D500F5
:1019E000558F939E080193DE0E013313F500935536
:1019F0000701B376E603B387CE03C206CD8E63FB41
:101A0000F600C6961306FEFF63E4161763F2F61699
:101A1000791EC6969D8E33D6E60393170701C183C0
:101A2000B3F6E6033385CE02139706015D8F637B21
:101A3000A70046979307F6FF636817136376A7120C
:101A40007916469793150E01098FD18D4DB5B35771
:101A5000E600B396C601DD8E33D3E50013DF060141
:101A6000B357E303939E060193DE0E013398C5013D
:101A70003357E50033680701935808013316C60150
:101A80003373E303B385FE024203B368130163FBC0
:101A9000B800B6981387F7FF63EAD80C63F8B80C60
:101AA000F917B698B388B84033D7E80342081358FB
:101AB0000801B3F8E8033383EE02C208B3E5080176
:101AC00063FB6500B6951308F7FF63EDD50863FB6C
:101AD00065087917B695C207416FD98F1307FFFFC5
:101AE000B3F6E70093D80701718F4182B38EE60207
:101AF000B3856540B386C60213D80E013387E8026A
:101B0000BA96C2963386C80263F3E6007A9693D8F3
:101B10000601469663E2C5026385C5003E858145A0
:101B2000828041677D17F98EC206B3FEEE00331541
:101B3000C501F696E374D5FE1385F7FF81458280D3
:101B400013D70601414839BD93560601C147D1B1AB
:101B500093D60801C14785BB8145054582803687FC
:101B6000014809B5428785BF3E86E9BDBA871DBFDA
:101B7000328E4DB579154698E5B97915C69761BB92
:101B800039713EDA2ED232D436D63AD842DC46DE2D
:101B90009387418122CC804326CA06CEAA8409C4F9
:101BA0001C4C99E32285F9200C445410268622858A
:101BB00036C6A526F2406244D2442161828041119A
:101BC00022C406C62A844EA572A52320050023221E
:101BD0000500232405002322050623280500232AC7
:101BE0000500232C0500214681451305C505EFE0BE
:101BF0002FD7971700009387A7985CD097170000FE
:101C00009387C79A1CD4971700009387A79E5CD42C
:101C100097170000938707A100D01CD8B240224438
:101C20004101828097150000938545D4A9A24111F6
:101C300026C2130680069384F5FFB384C4024AC00B
:101C40002E8922C406C693854407592A2A8401CDC9
:101C50002320050023222501310508C413868406AC
:101C60008145EFE0EFCF2285B24022449244024901
:101C7000410182801C4DADE3411106C622C4970785
:101C80000000938767FA1CD5938781819C432324A6
:101C9000050423260504232805046314F50085475D
:101CA0001CCD2A841D2848C02285052808C4228509
:101CB0002D2048C448400146914511370844054647
:101CC000A545F53D48440946C945D53D85471CCC49
:101CD000B2402244410182808280411193878181F8
:101CE00026C284434AC006C69C4C22C42A8999E372
:101CF00026854937938484048044DC40FD1763D6ED
:101D000007009C40B9CF8440C5BF0317C40039E722
:101D1000C177850723220406232004002322040020
:101D2000232404005CC423280400232A0400232C59
:101D30000400214681451305C405EFE06FC2232A44
:101D40000402232C040223240404232604042285F1
:101D5000B240224492440249410182801304840625
:101D600071BF91454A85E13588C051FDB1472320B7
:101D7000F9000144E9BF797122D44AD052CC56CA45
:101D80005AC85EC606D626D24ECE2A8AAE8A13041A
:101D900085040149054BFD5B09ECB25022544A858C
:101DA00092540259F249624AD24A424BB24B4561BF
:101DB0008280044483294400FD1963D40900004053
:101DC000E1BFDE24637BFB008397E4006387770138
:101DD000A6855285829A3369A90093848406E9BF57
:101DE000011126CA93843500F19806CE22CC4AC848
:101DF0004EC6A104B14763F3F404B14463E2B404F2
:101E00002A89EF00704F9387C18498433A8439E060
:101E1000938701859C4391E781454A851D2F23A81F
:101E2000A184A6854A853527FD5963193507B14731
:101E30002320F9004A85EF00504C29A0E3D004FC90
:101E4000B1471CC10145F2406244D2444249B24903
:101E5000056182801C40858F63CF0702AD4663F623
:101E6000F6001CC03E9404C031A05C40631387029E
:101E700023A6F1844A85EF0050481305B400930768
:101E8000440061993307F5405DDF3A94898F1CC0A7
:101E90005DBF5CC3C5B72287404095BF13043500C2
:101EA0007198E30285FCB305A4404A855D25E31CD7
:101EB00035FBB5BF1C46FD171CC663D90700184E7D
:101EC00063C5E700A9476393F500B1AF1C422E85B7
:101ED0001387170018C28CA38280011122CC26CA56
:101EE0004AC84EC652C406CE2A89AE893284B3048B
:101EF000D6007D5A63149400014501A80C204E863B
:101F00004A854D3F0504E31745FFF2406244D24441
:101F10004249B249224A05618280357122CD26CBE1
:101F20004AC94EC706CF52C556C35AC1DEDEE2DCEF
:101F3000E6DAAA89AE843289368409C51C4D99E354
:101F4000EFF05FD397170000938787E66398F40C50
:101F500083A44900DE24A18BE5C79C48F5C3930701
:101F60000002A304F1029307000302D22305F10249
:101F700022C6930B5002971A0000938A6AE7054C19
:101F8000294B4A841C2099C3639E770DB30C2441CE
:101F9000638D0C00E6864A86A6854E853D3FFD573B
:101FA0006301F51E9256E69636D21C20638B071C01
:101FB000FD571309140002C802CE3ECA02CCA30981
:101FC000010482D48345090015465685EF0050313F
:101FD00013041900C24749E913F7070109C713079A
:101FE0000002A309E10413F7870009C71307B00231
:101FF000A309E104834609001307A002638EE606E5
:10200000F2474A8481462546182093051400130799
:1020100007FD6376E60AADCA3ECEBDA09717000065
:10202000938707DB6395F40083A4890025B797178E
:1020300000009387E7D5E39FF4F083A4C90019BF9C
:10204000A6854E85F92501DD7D55FA406A44DA44BE
:102050004A49BA492A4A9A4A0A4BF65B665CD65CF8
:102060000D618280050439BF330555413315AC003D
:10207000C98F3EC82289B9B7324793064700184333
:1020800036C6634707023ACE18209307E002631D65
:10209000F70418309307A002631BF702B247090444
:1020A000138747009C433AC663C107023ECA2DA866
:1020B0003307E04093E727003ACE3EC8F1B7B38735
:1020C000670385462E84BA9781B7FD57C5B70504C7
:1020D00002CA81468147254618209305140013073C
:1020E00007FD6376E606F9F20C200D461715000091
:1020F000130585D0EF00D01E11CD971700009387F0
:10210000A7CF1D8D93070004B397A7004245050490
:102110005D8D2AC80C20194617150000130505CE41
:10212000130914002304B102EF00901B35C197E797
:10213000FFFF938727ED95E74247B24713770710D4
:1021400009CF91073EC69257D2973ED21DBDB387A5
:10215000670385462E84BA9741B79D07E19BA10787
:10216000D5B7780097060000938666D726860C08B8
:102170004E8597000000E7000000FD572A8AE3140F
:10218000F5FCDE2493F70704E39007EC125575BDC8
:10219000780097060000938686D426860C084E8524
:1021A000012AE1BF797156CA9C49BA8A984522D45E
:1021B00026D24ECE52CC06D64AD05AC85EC6AA897E
:1021C0002E84B284368A63D3E700BA879CC0034763
:1021D000340419C385079CC01C4093F7070281C7CC
:1021E0009C4089079CC00329040013796900631A85
:1021F0000900130B9401FD5B5C449840998F634C7C
:10220000F9041C408346340493F70702B336D00028
:10221000A5EB13063404D2854E85829AFD576303DD
:10222000F5041C4011469840998B544481446397AF
:10223000C700B384E64063D3040081441C441848BB
:102240006354F700998FBE94014969047D5B6398DC
:102250002405014509A885465A86D2854E85829A6D
:10226000631E75017D55B250225492540259F249B1
:10227000624AD24A424BB24B456182800509ADBFEA
:102280003307D40013060003A301C7040347540413
:1022900093871600A2978906A381E7049DBF854610
:1022A0002286D2854E85829AE30E65FB050945B7E5
:1022B000797122D426D24AD04ECE06D652CC56CAF6
:1022C0005AC8B689942D930790063289AA842E8421
:1022D00013863504638DF60263E2D7069307800503
:1022E0006386F61863EDD700638E062093073004EB
:1022F000638EF60A930A24042301D404C9A0930729
:1023000030066385F60A93074006E395F6FE1C4007
:10231000084393F6070893054500C5C61C410CC346
:1023200063D807001307D002B307F040A301E40409
:1023300097160000938606AD294765A89307000706
:102340006382F61663E5D7029307E0066389F61801
:102350009307F006E390F6FA0C401C4313F80508C7
:10236000138547006307080608C39C4385A89307A5
:102370005007E383F6FE930780076389F6129307FD
:102380003007E399F6F61C43D04181459386470018
:1023900014C383AA07005685A12701C533055541FB
:1023A00048C05C401CC8A301040461A81C43930AF4
:1023B0002404938647009C4314C32301F4048547F7
:1023C000D5B793F607041C410CC3B9DAC207C1871D
:1023D00081BF93F5050408C3C9D99E231307F006EE
:1023E0006387E60E971600009386C6A12947A301CE
:1023F00004044C400CC463C5050008406D9908C036
:1024000099E3B28A89CDB28AB3F5E702FD1AB6958F
:102410008C212380BA00B3D5E70263F0E70CA14713
:10242000631EF7001C40858B91CB58401C4863C746
:10243000E70093070003A38FFAFEFD1A3306564107
:1024400010C84E87CA867000A2852685EFF09FD5FA
:102450007D5A631D450B7D55B2502254925402594A
:10246000F249624AD24A424B45618280A382D50436
:1024700097160000938606990C40084313F8050848
:102480001C411105630D080208C313F7150001C7AD
:1024900093E505020CC04147B9FB0C4093F5F5FDEF
:1024A0000CC0B1B79C4193E707029CC1930780071A
:1024B000A302F404971600009386069675BF13F8DE
:1024C000050408C3E30308FCC207C1837DBF971658
:1024D000000093862693214719BFAE8735B79441F4
:1024E0001C43CC4913F8060813854700630608000F
:1024F00008C39C438CC339A008C393F606049C43CD
:10250000F5DA8EA323280400B28A25BF1448568624
:10251000CA8526858299E30045F51C40898B8DE7A5
:10252000B2474844E35AF5F23E853DB785465686A4
:10253000CA8526858299E30065F3050A5C44324723
:10254000998FE345FAFEE9BF014A930A94017D5B46
:10255000F5B7411122C42A842E8523A6019806C608
:10256000EFF08FA6FD576317F5009387C1989C4342
:1025700091C31CC0B240224441018280411122C457
:102580002E848395E50006C6212D634905007C480D
:10259000AA977CC8B2402244410182805E247D77A4
:1025A0007D17F98F5EA4FDB7DE25011122CC26CA66
:1025B0004AC84EC606CE93F70710AA842E843289E5
:1025C000B68991C78395E5008946014609215E24B5
:1025D0007D777D17F98F5EA48315E4006244F24095
:1025E000CE864A86B24942492685D2440561DDA895
:1025F000411122C42E848395E50006C6C92EFD57DD
:102600005A24631AF500FD77FD17F98F5EA4B240D6
:102610002244410182808567D98F5EA468C8C5BF06
:102620008395E500F5A2011122CC26CA4AC806CE40
:102630004EC6AA842E89328409C51C4D99E3EFF059
:102640006FE3970700009387A7766317F406C040EF
:102650001C4C1CC45E24A18BC1C31C48B5CF1C48B4
:1026600008409379F90F1379F90F1D8D5C48634683
:10267000F500A2852685CD2C25E51C440505FD1712
:102680001CC41C401387170018C0238037015C4806
:102690006388A7005E24858B81CBA9476316F90068
:1026A000A2852685D1240DEDF24062444A85D244AC
:1026B0004249B249056182809707000093874771BC
:1026C0006314F400804469B7970700009387476C50
:1026D000E310F4F8C044ADBFA28526851D2841D182
:1026E0007D59D9B7411122C42A842E85B2853686F8
:1026F00023A6019806C6EFF08F89FD576317F500F2
:102700009387C1989C4391C31CC0B24022444101AD
:10271000828041119387418126C2844322C44AC0EA
:1027200006C62A892E8491C49C4C81E72685EFF049
:102730006FD4970700009387A767631BF402C0401C
:102740000317C40093170701C18393F68700ADEA0E
:1027500093F6070195EEA5472320F90013670704B8
:102760005AA47D55B24022449244024941018280DC
:10277000970700009387C7656314F4008044C9B7C6
:10278000970700009387C760E31CF4FAC0444DBF6D
:10279000918B9DC34C5889C9930744046384F50009
:1027A0004A85A92E232A04025E242322040093F7DB
:1027B000B7FD5EA41C481CC05E2493E787005EA49E
:1027C0001C4899EB5E241307002093F707286385C4
:1027D000E700A2854A85AD2C5E2413F717001DC3C0
:1027E0005C4823240400B307F0401CCC1C4801457E
:1027F000B5FB8317C40013F707082DD793E7070429
:102800005EA485B7898B014791E3584818C4F9BF86
:10281000411122C42A842E8523A6019806C60121CF
:10282000FD576317F5009387C1989C4391C31CC063
:10283000B240224441018280DE25011122CC26CA09
:1028400006CE4AC84EC613F78700AA842E8479EBB9
:10285000D841634DE000B841634AE0000145F240D1
:102860006244D2444249B2490561828058547DD7BE
:1028700003A904009396370123A0040063DB060636
:1028800070485E24918B99C75C401D8E5C5899C33B
:102890003C401D8E5C540C50814626858297FD5726
:1028A0005A24631DF5009440F54763E8D706B7073F
:1028B00040208507B3D7D700858BA5C31C482322AA
:1028C00004001CC09317370163D80700FD57631439
:1028D000F5009C4091E368C84C5823A02401BDDD5D
:1028E000930744046384F5002685092C232A0402F7
:1028F000B5B70C500146854626850297FD572A86B6
:10290000E311F5F89C40B5DF75476385E70059474B
:102910006393E70423A0240191B7136707045AA423
:102920007D5535BF83A90501E38A09F203A9050096
:102930008D8B23A0350133093941014791E3D849F3
:1029400018C4E35D20F11C540C50CA864E862685BF
:1029500082976347A0005E2493E707045EA4C9B78B
:10296000AA993309A940F1BF9C49A5C3011122CC02
:1029700006CE2A8419C51C4D89E72EC6EFF08FAF0D
:10298000B245970700009387A742639BF5004C4030
:102990008397C50095C722856244F240056169BDF1
:1029A000970700009387C7426394F5000C44CDB7A6
:1029B000970700009387C73DE39CF5FC4C44C9BFD3
:1029C000F2406244014505618280014582804111E7
:1029D00022C42A842E85B285368623A6019806C68F
:1029E0008D24FD576317F5009387C1989C4391C3CD
:1029F0001CC0B2402244410182801971A6DAAE8423
:102A00008395E500A2DC86DE328463DB0500DE24EC
:102A100023A0060093F707089DE39307004015A045
:102A2000300836C66522B246E34305FE7247BD67ED
:102A3000F98F7977BA9793B717009CC2F9BF9307BC
:102A400000041CC0F6506654D654014509618280CA
:102A5000DE25011122CC06CE26CA4AC8898B2E84D7
:102A600089CF930774041CC01CC885475CC8F2401A
:102A70006244D24442490561828074003000AA84D5
:102A8000AD3FA2452A892685EFF08FB519E9831756
:102A9000C40013F7072061FFF19B93E727005EA4B2
:102AA000C9B797F7FFFF938727189CD45E2408C007
:102AB00008C893E707085EA4A2475CC8B24799CB51
:102AC0008315E4002685052A11C55E24F19B93E752
:102AD00017005EA45E243369F9002316240141BF68
:102AE00093F5F50F2A966314C500014582801C21D9
:102AF000E38EB7FE0505C5BF82808280CDC183A766
:102B0000C5FF411122C406C626C21384C5FF63D384
:102B100007003E94AA84CD379387C1849C4399EBE8
:102B20002322040023A681842244B24026859244B5
:102B30004101E1B7637EF40014403307D40063968B
:102B4000E7009843DC43369718C05CC0E1BFBA8702
:102B5000D84319C3E37DE4FE94433386D700631F53
:102B600086001040B29694C33386D700E31EC7FA9E
:102B700010435843B29694C3D8C37DB76375C4005D
:102B8000B1479CC055B71040B306C4006316D700C8
:102B900014435843B29614C058C0C0C371B7828062
:102BA000411122C42A842E85B285368623A6019837
:102BB00006C67128FD576317F5009387C1989C439B
:102BC00091C31CC0B240224441018280411122C401
:102BD0002A842E85B28523A6019806C6B920FD5702
:102BE0006317F5009387C1989C4391C31CC0B24002
:102BF000224441018280411122C42A842E8523A6C9
:102C0000019806C60D28FD576317F5009387C198F4
:102C10009C4391C31CC0B24022444101828093076F
:102C2000800523A6F1987D5582809307800523A611
:102C3000F1987D5582809307800523A6F198014580
:102C400082809307800523A6F1987D5582809307A3
:102C5000800523A6F1987D5582800000960700002C
:102C6000AC070000B2070000BC0700005379737482
:102C7000656D436C6B3A25640D0A0000436869700A
:102C800049443A253038780D0A000000000102025C
:102C900003030303040404040404040405050505F4
:102CA00005050505050505050505050506060606D0
:102CB00006060606060606060606060606060606B4
:102CC00006060606060606060606060607070707A0
:102CD0000707070707070707070707070707070784
:102CE0000707070707070707070707070707070774
:102CF0000707070707070707070707070707070764
:102D0000070707070707070707070707080808084F
:102D10000808080808080808080808080808080833
:102D20000808080808080808080808080808080823
:102D30000808080808080808080808080808080813
:102D40000808080808080808080808080808080803
:102D500008080808080808080808080808080808F3
:102D600008080808080808080808080808080808E3
:102D700008080808080808080808080808080808D3
:102D800008080808080808080808080800000000E3
:102D90000000000000000000000000000000000033
:102DA0000000000000000000000000000000000023
:102DB0000000000000000000000000000000000013
:102DC0000000000000000000000000000000000003
:102DD00000000000000000000000000000000000F3
:102DE000000000000000000000000000232D302B38
:102DF00020000000686C4C0065666745464700008F
:102E00003031323334353637383941424344454620
:102E100000000000303132333435363738396162E2
:082E2000636465660000000018
:102E28000000000000000000010203040607080972
:102E38000000000001020304010203040607080958
:102E480000000000AC2D0000CC2D00008C2D0000EF
:102E5800000000000000000000000000000000006A
:102E6800000000000000000000000000000000005A
:102E7800000000000000000000000000000000004A
:102E8800000000000000000000000000000000003A
:102E9800000000000000000000000000000000002A
:102EA80004000000FFFFFFFF006CDC0202040608BC
:102EB8001002002020000020200000200000000058
:00000001FF
