:040000006F106029F4
:100004000000000000000000080200000A020000D6
:100014000000000094120000000000000000000036
:100024009412000094120000000000000000000080
:10003400AE08000000000000941200000000000060
:100044009412000094120000941200009412000014
:100054009412000094120000941200009412000004
:1000640094120000E40500009412000094120000B1
:1000740094120000941200009412000094120000E4
:1000840094120000941200009412000094120000D4
:100094009412000094120000941200003E06000026
:1000A40094120000941200009412000094120000B4
:1000B40094120000941200009412000094120000A4
:1000C4009412000094120000941200009412000094
:1000D4009412000094120000941200009412000084
:1000E4009412000094120000941200009412000074
:0C00F4009412000094120000941200000E
:10010000397101436EC619A0397141536AC866CA74
:1001100062CC5ECE19A0397101535AD056D252D456
:100120004ED64AD826DA22DC06DE330161408282CE
:1001300041114AC026C222C406C68282B24D410184
:10014000024D924C224CB24B4101024B924A224A40
:10015000B2494101024992442244B24041018280A5
:100160003D432A876373C3029377F700BDEFADE584
:10017000937606FF3D8ABA960CC34CC30CC74CC796
:100180004107E36BD7FE11E28280B306C3408A06C3
:100190009702000096966780A6002307B700A30683
:1001A000B7002306B700A305B7002305B700A304D3
:1001B000B7002304B700A303B7002303B700A302CB
:1001C000B7002302B700A301B7002301B700A300C3
:1001D000B7002300B700828093F5F50F9396850052
:1001E000D58D93960501D58D61B79396270097021B
:1001F000000096968682E78086FA9680C1171D8F4A
:100200003E96E374C3F8A5B701A001A005811D893E
:10021000828011810D898280858979994D8D8280B6
:100220008605B98945994D8D8280920593F5050320
:100230001375F5FC4D8D8280B707C0FF9387F73F9C
:100240007D8DB7074000938707C0AA05FD8D4D8DB2
:1002500082805C217D476368F7021C451307601F9D
:10026000B387F5409386F7C76360D7021C41858347
:100270001CC11C41860785831CC15C21850793F73F
:10028000F70F5CA10CC582809387F78F1307E03EC0
:10029000636AF7001C413707008085831CC11C413D
:1002A000D98FD9BF2320050023020500E1BFEFF25B
:1002B0003FE82A84E526AA8509E413850185513F94
:1002C00051BD8547E31EF4FE1385C185CDBF3707B9
:1002D0000402931725001307C7DFB706FE01F98F45
:1002E0009386E61F13171500758FB98F3707040023
:1002F0009306F7FFE98EB58F13561500B706020077
:10030000758EB18F938606C013562500F18EB58F7A
:10031000130607E093563500F18E37060E00B58FB1
:100320001306C63F93564500F18EB58F130727E09D
:1003300093565500758FB98F93D6070113D7870051
:10034000358F3D8FE183B98FE2073D8D82809387A2
:100350000185DC231307000205456308F700938736
:10036000C185C823011513351500828013870185C7
:10037000582393060002938701856392E60288431F
:1003800015C5EFF2FFDA238207009387C185238228
:100390000700353F9357850191C3014565BB13871E
:1003A000C18550236394C6000843D9BF01458280AC
:1003B00093870185238207009387C18523820700E5
:1003C000054723AEE180828093878186C14694C32E
:1003D000A146D4C3814589471387818605460D4EC2
:1003E0009308200493861700138327008A07331885
:1003F000B600BA978A063378A80090C3BA9663000D
:10040000080223A0C60185059A87E31D13FD8547D1
:100410002324F7102326F710238C0180828090C2BA
:10042000DDB7EFF2FFD0797185452545EF106030DB
:1004300085450945EF10C0318947FC8237150140D9
:10044000E1473ECE4C088D47130505C037040040F8
:100450003ECCEF0070769307204F2C00130504402C
:100460003EC602C4EF10A030C167938707063ED096
:100470000C1093078025130504402313F102231465
:100480000102EF10C03E13050440A145EF10604982
:10049000854513050440EF10C045456165B9EFF28D
:1004A0003FC991454545A9263705004085451305B7
:1004B0000540EF10804279B9EFF29FC73705004041
:1004C000814513050540EF104041854545450D2602
:1004D00081454545612EBDB9EFF29FC522052181B9
:1004E00023AE0180ED33CD352D3FF93713870182DF
:1004F000854614C39387018298437DFF553D99B982
:10050000EFF21FC3938701829C43BDC39387818110
:100510009C23094793840182E207E187B3E7E7025E
:100520000547138481816396E7049C4091C3693732
:100530001C2013878186E207E1878A07BA979443D4
:10054000FD1694C31C20E207E1878A073E971C43EF
:100550006347F0001C208507E207E1871CA01C20F0
:1005600013073004E207E1876354F70023A0040077
:10057000D5B69C40D5DF253765BFEFF27FBB0111B3
:1005800085450545EF1000198D450145EF104004E4
:1005900095450145EF10C0030544A14731490808BE
:1005A0003EC84ACC22CE02CAEF00F0579307901102
:1005B000894428007C84448522C6EF108004930778
:1005C000000208083EC84ACC22CE02CAEF00B0554D
:1005D0009307701228007C84448522C6EF106002C5
:1005E00005618DBE39712AD6214506DE16DC1ADA80
:1005F0001ED82ED432D236D03ACE3ECC42CA46C8CD
:1006000072C676C47AC27EC0EF00905811C52145EB
:10061000EF00F05901456139F250E2525253C25392
:100620003255A255125682567247E2475248C24886
:10063000324EA24E124F824F216173002030397129
:100640002AD61305000206DE16DC1ADA1ED82ED4CE
:1006500032D236D03ACE3ECC42CA46C872C676C4F2
:100660007AC27EC0EF00D05219C513050002EF0018
:10067000105405452D39F250E2525253C2533255AF
:10068000A255125682567247E2475248C248324E2D
:10069000A24E124F824F216173002030EFF25FA90A
:1006A000B7F700E09847DC4703A6018383A64183A0
:1006B0003305C700B335E5003387D700B7070020FF
:1006C00003A64708B7470F00938707243356F6025F
:1006D0008146BA95EF10803DB5BCEFF27FA57D3F16
:1006E0001306803E8146EF10603CADB4EFF25FA48C
:1006F0002A84E537B304A40033B484002E94F13F78
:1007000063E785006314B40063639500A1B401003E
:10071000FDB7B7F700E023A20700814694C7014761
:10072000D8C788CBCCCB3D4798C3B7E700E0054797
:100730002386E740056723A0E71023A4A18223A610
:10074000B1828280BD4763D0A702FD4763D2A70272
:100750001307F00381476346A700B717014093874B
:1007600007403E858280B717014093870780D5BF39
:10077000B7170140938707C0EDB7BD4763DFA700F8
:100780007D47A1476359A7001307F00381476344DE
:10079000A700930700023E8582809147EDBFEFF2EC
:1007A0003F99411185451545EF00B0783705300078
:1007B000854513050540EF009052371401409967B5
:1007C00011498D444C00130504807C824AC626C41E
:1007D00023130100EF00503EA1474C001305048095
:1007E0007C824AC626C4EF00303D41016FF09F96DF
:1007F000EFF21F94930735FF93F7F70F0547411169
:10080000AA842E846363F700593F2685BD3785454A
:10081000EF00307213F7F4008547B397E7009305B4
:10082000F4FF7C822313010093F5F50F8D4763EBF2
:10083000B7028D67938747FB8A05BE959C418287E7
:10084000C1473EC626858D473EC4ED3D4C00EF00B6
:10085000B03641016FF01F9093078004DDB7930716
:100860008002C5B79147F1BFE147E1BFEFF25F8C6E
:1008700041112EC62A84F9353D888547B3978700F4
:10088000324693950701C181EF00D04341016FF0DB
:100890007F8CEFF2FF892A8475353D888545B395B5
:1008A0008500C205C181EF0050406FF0BF8AB7F7E5
:1008B00000E023A2070003A8818283A8C182938756
:1008C00001839043D443330706013335C700B38512
:1008D0001601B306B50098C31945D4C35D3F11E5B1
:1008E000938781839843050798C319397300203093
:1008F000EFF21F84814537050040EF00107EB707F7
:100900000040239C070285450545DD3581450545A9
:10091000B13F6FF03F84B707002083A74708B73681
:100920006300938636F033D7A70263E6E6024207F8
:100930004183930640063357D702B70600409AB664
:10094000B3D7E702B3D7A702C207C183DEB6858358
:100950009EBEDEB282804167130787DEF9BFEFF2E9
:100960002FFDB70700409E230111858B89C765378E
:1009700005616FF02FFEAA8485451545EF00705B79
:1009800085450545EF00D05C914505459535B70790
:10099000002003A74708B7366300938636F0B357A5
:1009A000970263E8F606C207C18393064006B3D7F1
:1009B000D7024C0037050040231301003354F702DF
:1009C000FD177C82930700107C8533549402420407
:1009D00041806084EF00B059C167938707060C0817
:1009E0000580370500403EC8E083231C0100EF006E
:1009F000B05EA14537050040EF00507185453705D1
:100A00000040EF00106F854537050040EF00F06CA7
:100A100085B7C167938787DE69BFEFF26FF1411138
:100A200085450545EF00F050854513050002EF00B0
:100A3000505085452165EF00902A85477C82371507
:100A40000140C1473EC64C008D47130505403EC4DA
:100A500023130100EF005016814713878197BD468D
:100A60003306F700230006008507E39BD7FE41010C
:100A70006FF04FEEB717014093870740054798CBBB
:100A800029C5010001000100010001000100010071
:100A9000010001000100010001000100010001004E
:100AA000010001000100010001000100010001003E
:100AB000010001000100010001000100010001002E
:100AC000010001000100D8CB82800100010001007B
:100AD000010001000100010001000100010001000E
:100AE000010001000100D8CB01000100010001005C
:100AF00001000100010001000100010001000100EE
:100B000001000100010001000100010001000100DD
:100B10008280EFF24FE04111AA8932891D44FD54D1
:100B200033D5854005892EC67D14A937B245E31912
:100B300094FE1D44FD5433D5894005897D141D3F25
:100B4000E31B94FE1D44FD543355894005897D14F3
:100B50001537E31B94FE41016FF02FDFA20542051C
:100B60002E95329582808D473307F50213D6850086
:100B700093D605011376F60F93F6F60F93878197B8
:100B800011E594A390B3BA97ACA382803385E700B4
:100B900010A114B1CDBFEFF2AFD92A890144954419
:100BA0002285CA850504C137E31C94FE6FF08FDAF5
:100BB000EFF20FD89307800873B0078013848197F2
:100BC0009304F40030200C3008200D049937E31B07
:100BD00094FE85679387C7DA0100FD17F5FF930739
:100BE000800873A007806FF0EFD6EFF26FD4131672
:100BF0005500931565001E051376060893F5050844
:100C000013750508A13F6FF0EFD4EFF26FD259458D
:100C10004931854711C95D45AD39894711C5014540
:100C20008D39933715008A073E856FF0AFD2EFF20A
:100C30002FD037040020D13F130404081840814707
:100C40006305E500D937AA8708C03E856FF08FD0CD
:100C5000EFF20FCEEF00A0500545EF00301AEF0085
:100C6000805A716513050520EF009058B7070020E2
:100C700083A5470837350000130545FCEF10201CFD
:100C8000EF00C069AA8537350000130545FDEF1058
:100C9000001B89455945A93E89455D45913E8945D9
:100CA0000145B93685454545A136814545457D3ED9
:100CB00089451945353E1D651305C58F8145EFF002
:100CC0005FA589450D452D36894515451536EFF04B
:100CD000DF8AEFF0EFED91336FF0CFC7EFF24FC542
:100CE0000146814501459D3D7D3501468145130500
:100CF000F00FAD35AA850545BD355D3D1305800C6A
:100D0000EFF0DF9E01469305F00F0145813DAA8576
:100D10000545913D014681451305F00F8135AA85B2
:100D20000945913571351305800CEFF03F9C130692
:100D3000F00F814501451D35AA8505452D35014634
:100D40009305F00F0145193DAA850945293D014646
:100D500081451305F00F1935AA850D452935893DC3
:100D60001305800CEFF09F980146930500081305CA
:100D70000008ED33AA850545FD331306F00F8145C4
:100D80000145E93BAA850945F93B01469305F00F6A
:100D90000145E933AA850D45F9330146814513051F
:100DA000F00F6D3BAA8511457D3B19351305800C6D
:100DB000EFF0DF931306000593050005130500050A
:100DC000713BD13BF53313051040513E13056004D0
:100DD000EFF0DF9105651305A58251361305401F1D
:100DE000EFF0DF90EFF0DFB01305401FEFF01F9042
:100DF0000146814501459D33793B5D3B6FF08FB5E1
:100E0000EFF20FB313050031EFF07FB51305300299
:100E1000EFF0DF8D13050062EFF07FB413053002B1
:100E2000EFF0DF8C0565130505C4EFF05FB3130524
:100E30003002EFF0BF8BEFF0BFAB6FF0AFB1EFF26E
:100E40008FAD370400201304040808408569114958
:100E5000693BAA8401458133A68505452933893B31
:100E60002945EFF0BF8801453D33A6850945E539A1
:100E7000813313052003EFF07F870145293BA685C9
:100E80000D45D531353313050005EFF03F8601459B
:100E90001933A6851145C139213B00409307401FF6
:100EA000938A89383304F402130A003242044180E1
:100EB0005685EFF0DFAA9384893833059400420504
:100EC0004181EFF05FA52945938444EDEFF01F8247
:100ED000E39544FF7D19EFF0BFA1E31B09FC6FF020
:100EE000CFA6EFF26FA2AE842A89096AFD39EFF02E
:100EF0009FCA1304803EEFF0BFCB755BDD5A130A27
:100F00000AF4334564039309451FEF003077B307B4
:100F100054033114D297B38737413365F5024E95A8
:100F200042054181EFF0BFA31145EFF02FFC71F8AE
:100F3000096AF55BDD5A130A0AF4130B803E334548
:100F400074039309451FEF007073B307540309043A
:100F5000D297B38737413365F5024E9542054181FB
:100F6000EFF0FF9F0545EFF06FF8E31A64FDEFF037
:100F70003F984A85EFF07FC7EFF0FFC18980EFF01F
:100F80003FC311443709002003250908EFF0FFC5CE
:100F9000AA852285EFF03FBD26857D14EFF00FF581
:100FA000EFF01FC175F06FF0AF99EFF26F98014647
:100FB00081450145EFF09FBAEFF0FFBD01443709CD
:100FC000002083A7C18363D68700EFF07FBE6FF058
:100FD0006F9803250908EFF05FC1AA852285EFF01D
:100FE0009FB80504F9BFEFF2AF94EFF01FC219C12B
:100FF0006FF04F9601469305F00FEFF03FB6EFF01C
:101000009FB9EFF0FFBA1305A00FEFF02FEE0146E6
:1010100081450145EFF09FB4EFF0FFB7EFF05FB906
:101020001305A00FEFF08FECC9B7EFF2EF8D9147EA
:1010300023AEF1821384C183B7090020214B954B65
:10104000EFF0FFBE01C92945EFF04FEAEFF03FBED8
:101050007DF97D3383A781838DC783A78183A5EB2A
:1010600083C509080145EFF0AF9B8545EFF0EF9B85
:101070008145EFF06F9A8145EFF00F9CEFF0CFC5FF
:101080007D3BEFF0CFAC15CDEFF04FAEAA8415C984
:10109000EFF0CF9783A709086305F5022685EFF0E7
:1010A0004F978547631FF5001C4091CBFD171CC06F
:1010B000268585C7EFF08F959305007D1D35EFF0F0
:1010C000EFAA1C40854A114CA9CFC53595BF2945CB
:1010D00023AC0182EFF08FE149B7EFF02F93D145B8
:1010E000F1BFEF00B059AA84EF0050593365650392
:1010F000EFF0BFAFB3E48403AA8513851400EFF0CB
:101100009FA6854463925403EFF09FAA1305200322
:101110007D1AEFF0AFDDE3160AFC938A1400638FAB
:101120007A01130A200375BF03A50908EFF0FFAB8E
:10113000AA852685EFF03FA38504E9B791471CC037
:10114000EFF0CFA2EFF0DFCB23AC0182BDBFEFE227
:101150003FFEEFF0FFAF413DEFF05FB8F935B71755
:1011600002409843B706FFF01367170098C3D843AF
:10117000758FD8C39843B706F7FEFD16758F98C3D1
:101180009843B706FCFFFD16758F98C3D843B70682
:1011900001FFFD16758FD8C337079F0098C7B74664
:1011A000024003A706801367070123A0E680D84307
:1011B000B706C1FFFD16D8C3D843D8C3D8431367B9
:1011C0000740D8C3D843758FD8C3D843B70610009B
:1011D000558FD8C39843B7060001558F98C39843DD
:1011E00093166700E3DD06FED843B7160240719BF5
:1011F000D8C3D84313672700D8C32147DC42B18B3B
:10120000E39EE7FE8280B7160240DC421146B18BB6
:10121000138741806385C70021466388C702B717DB
:101220007A00938707201CC3B7170240DC439183E1
:1012300093F6F700B707002093870700B69794232B
:101240001C43B3D7D7001CC38280DC42D442416622
:10125000C983BD8BF18E890745466393C700C94793
:1012600081EEB746024083A60680C18A89CEB716B2
:101270007A009386062021A8B7160240D44213961E
:10128000E600E35606FEB7163D0093860690B38748
:10129000D70251BF01A097F1FF1F9381A15E1711E3
:1012A000002013012156172500001305A5ED97F521
:1012B000FF1F938525D51386818163FAC50083229C
:1012C000050023A0550011059105E3EAC5FE13852D
:1012D00081819385C1986377B500232005001105AE
:1012E000E36DB5FEFD42739002BC8D427390428067
:1012F000930280087390023097F2FFFF9382C2D06E
:1013000093E2320073905230EFF07FE597020000D5
:10131000938222E47390123473002030B7F7FF1FDA
:1013200003A5477082805841032805004C453706C5
:101330000140930706403E979346F8FFB1C58325C9
:101340000640F58D2320B640D043F18ED4C314431C
:10135000B3E6060114C3184190479346F7FF758E14
:1013600090C7D047F18ED4C7144541466399C60053
:101370009447D98E94C7D447558FD8C78280B697E3
:101380009443558F98C382801C43F58F1CC3828081
:10139000B70701401387074083A70740584B698F61
:1013A00009C77D8D3335A000828001458280B70753
:1013B000014023AAA74082809C4513F7070113F838
:1013C000F70001C7D8413368E80037270240145BB3
:1013D0003707000F758F4DEB85462380D184371773
:1013E00001406315E5009A2135839AA18E2113F7F8
:1013F000F50F39C318418146854E3D4F930F80024A
:1014000093028004214E3396DE00B3F8C5006311C9
:1014100016039398260033131F011343F3FF33770A
:10142000E300B318180133E7E8006397F70750C9E2
:101430008506E39AC6FD18C11307F00F6375B7045C
:1014400054412146854E3D4F930F80029302800404
:10145000414EB398CE0033F715016392E80213179B
:10146000260001173313EF001343F3FFB376D300C5
:101470003317E800D98E6395F703232A1501050673
:10148000E319C6FD54C1828037170140E310E5F629
:1014900003C7018421DF81BFE39C57F810C949BF0E
:1014A000E39F57FC23281501D9BFB71701406316E6
:1014B000F50083C7018491C3B58108456D8D33352F
:1014C000A0008280B71701406316F50083C701842E
:1014D00091C3B58119C20CC982804CC98280B707FB
:1014E0000140635A0504DC4F9356050113180501AA
:1014F0003707300013F6F60013580801B376E500FD
:10150000635E05066399E604930606010D46B3166D
:10151000D60093C6F6FFF58F99C913575501137777
:10152000F73F12073317E800D98F635505063707D1
:1015300001405CCF828037270240145BDC433707D1
:10154000000F758F55F313D71700F976CE07758FF7
:10155000CD83D98F51BF1317B500635607008D4651
:10156000B396C6007DB7135755011377F73F12079F
:101570003317E8001347F7FFF98F79BF6390E6024E
:10158000370601405442370700F17D17F98F758FF8
:1015900058C2C1F5370701405CC382801317B500FC
:1015A000635C07008D46B396C60093C6F6FFFD8EBA
:1015B000B707000FD58FF1BF135755011207331727
:1015C000E8001347F7FF7D8FB707000FD98FD1B71A
:1015D00013F7C50F93F73500B7050140BA95944549
:1015E0008A073D473317F7001347F7FF758F98C5F4
:1015F00098453315F500598D88C5828023A2A184B2
:10160000828003A74184854714216310F7021C31AF
:10161000639CE7023C21960793E707F837E700E071
:1016200093F7F70F36972300F740054793D75600F7
:101630003317D700544189CE938707048A07B7E64A
:1016400000E0B69798C38280EDF33C219607F9B786
:1016500093870706E5B7371702405C439146B18B85
:101660006385D700A1466382D706B7177A009387B0
:1016700007201CC1371602405C42370700201307C1
:1016800007019183BD8BBA9794231C41B3D7D70030
:101690005CC15442A1829D8ABA969422B3D6D700E7
:1016A00014C55442AD829D8A36971823B3D7E700FC
:1016B0005CC558423983937637001387818036970B
:1016C0001823B3D7E7021CC982805C435843C16624
:1016D000C983BD8B758F8907C5466393D700C947FA
:1016E00001EF3747024003270780418B09CF3717A7
:1016F0007A001307072021A8371702405843931692
:10170000E700E3D606FE37173D0013070790B387BF
:10171000E70285B799C5371702405C4B5D8D48CB12
:101720008280B7170240D84B1345F5FF798DC8CB9F
:10173000828099C5371702401C4F5D8D08CF82808B
:10174000B7170240984F1345F5FF798D88CF8280F7
:1017500099C5371702405C4F5D8D48CF8280B7171F
:101760000240D84F1345F5FF798DC8CF82801E21E6
:1017700037370140130707C0C207C1836304E5027E
:10178000370700406300E50213070740630CE500DC
:1017900037170040930607806306D500130707C07C
:1017A0006316E500BA2193F7F7F8D98FFA2193F77A
:1017B000F7CFC207C183D98F1EA1DE215EB59E215E
:1017C0001EB5B7370140938707C06314F5009C2509
:1017D0001EB985475EA982801E3165771307F7CF52
:1017E000C207C183BD9BC207C1831EB11E315621F2
:1017F00003D88500C20713960601162DC18393F7FF
:10180000F7FD758F96214182A206558FB6214207BA
:101810004183B3E606019206D58FB7360140C20771
:10182000938606C0C183631ED502B62593F7F7F7EA
:1018300003D8C5009206D58FD621C207C183920670
:1018400093F7F7FBD58FFD769386F63FF18EF22561
:10185000C207C183336606010A06D18E13960601BC
:10186000418252A11AADFA211ABD1EB182801A31ED
:10187000FD77FD17F98F1EB10358050256215E2D25
:10188000657792211307F7CF7D8FF9772206FD1731
:10189000518FB3F70701B22103D88500C206420772
:1018A000336606013206D18F37360140C207130670
:1018B00006C0C1824183C183631AC50071767D165B
:1018C000F18ED2251A06D18EC206C18256A15AAD1A
:1018D000FA212310E5041EB182801E2189C593E7F9
:1018E00017001EA18280C207C183F99BC207C18372
:1018F000CDBF1E2189C593E707081EA18280C207BC
:10190000C18393F7F7F7C207C183C5BF1A2DFD77CF
:101910009387F77FF98FA205CD8FC207C1831EADD4
:1019200082805A2DFD779387F77FF98FA205CD8F9F
:10193000C207C1835EAD8280EFE28FFF1629F57783
:10194000FD17F58FF621DA257971D58F1EA9562559
:10195000FD779387379FF58FD6212A842EC6D58FA2
:101960009625D58FB625D58F5EA55E29C207C18382
:1019700093F7F7CFD98F5EA96808EFF0DFCDB747AF
:10198000014093870780B245631EF402A257654762
:10199000B387E7029841930640060A07B3D7E702E8
:1019A00033D7D702B3F7D7021207920793872703DB
:1019B000B3D7D702BD8BD98FC207C1831EA445619F
:1019C0006FE04FF99257E1B791C55E250967D98F4E
:1019D0005EA582805A25F977FD17F98FD5BF93F55B
:1019E000F51F4EA182800A216D8D3335A0008280C3
:1019F000EFE20FF401112A84854537050200EFF06C
:101A00003FD585451145EFF0DFD291477C823715F0
:101A100001408D473EC44C00E147130505803EC69A
:101A2000EFF09F9922C837440040B70708000C0820
:101A3000130504403ECC02CA231E0100F53D854536
:101A400013050440513705616FE0CFF0EFE2AFECD2
:101A5000B7440040AE893289014493840440634511
:101A600024014A856FE06FEE930500042685A53FAB
:101A700065DDB38789008385070026850504C205D7
:101A8000C181B13FE9BF1387C1801C439386C198D0
:101A90003E95636BD500B72600209386060063E56C
:101AA000A60008C33E858280FD57EDBFB687B28889
:101AB0002A832E88639B061463F8C50A4167636B0B
:101AC000E61AB70700016360F63493568601E147D2
:101AD000171700001307475136971823BA971307B3
:101AE00000021D8F19CB3398E500B357F500B318EA
:101AF000E60033E807013313E50013D60801335538
:101B0000C80293960801C182935703013377C80234
:101B1000B385A60242073368F700637AB800469897
:101B20009307F5FF636418016365B8303E85330899
:101B3000B8403357C8024203135303013378C80235
:101B4000B386E602420833686800637BD800469893
:101B50009307F7FF6365180179176363D8003E8721
:101B60004205598D8145828001E60547B358C70279
:101B7000416763E8E80EB707000163EAF82893D6E7
:101B80008801E1471717000013070746369714230B
:101B9000BE9693070002958FFDE7939E0801338759
:101BA000154113DF080193DE0E01854593570301AC
:101BB0003355E7033377E703B306D5034207D98FDD
:101BC00063FAD700C6971307F5FF63E4170163E5CF
:101BD000D7263A85958F33D7E70342031353030182
:101BE000B3F7E703B30ED703C207B3E7670063FB9E
:101BF000D701C6979306F7FF63E51701791763E3EB
:101C0000D70136874205598D828063E1D504C167CB
:101C100063E1F604B707000163E3F61E13D78601FC
:101C20006148971700009387273CBA979823130EB3
:101C300000024297330EEE40631A0E0C63EDB61CA1
:101C40003335C50013451500814582808145014526
:101C500082809307F00F63F3D71C13D786002148C7
:101C6000C9B71307F00FC686E37E17F193D6880035
:101C7000A14709BF1307F00FB286E37BC7E4935671
:101C80008600A147B1B5B398F80033D6D50013DF6D
:101C90000801335EE6033397F500B356D500558F40
:101CA000939E080193DE0E013313F500935507014F
:101CB000B376E603B387CE03C206CD8E63FBF60090
:101CC000C6961306FEFF63E4161763F2F616791E36
:101CD000C6969D8E33D6E60393170701C183B3F6EC
:101CE000E6033385CE02139706015D8F637BA70061
:101CF00046979307F6FF636817136376A712791662
:101D0000469793150E01098FD18D4DB5B357E60057
:101D1000B396C601DD8E33D3E50013DF0601B3575A
:101D2000E303939E060193DE0E013398C5013357FA
:101D3000E50033680701935808013316C601337371
:101D4000E303B385FE024203B368130163FBB800EB
:101D5000B6981387F7FF63EAD80C63F8B80CF91745
:101D6000B698B388B84033D7E8034208135808013F
:101D7000B3F8E8033383EE02C208B3E5080163FB5E
:101D80006500B6951308F7FF63EDD50863FB65089A
:101D90007917B695C207416FD98F1307FFFFB3F6C6
:101DA000E70093D80701718F4182B38EE602B385B5
:101DB0006540B386C60213D80E013387E802BA968F
:101DC000C2963386C80263F3E6007A9693D806017A
:101DD000469663E2C5026385C5003E8581458280E3
:101DE00041677D17F98EC206B3FEEE003315C501BB
:101DF000F696E374D5FE1385F7FF8145828013D7ED
:101E00000601414839BD93560601C147D1B193D669
:101E10000801C14785BB8145054582803687014859
:101E200009B5428785BF3E86E9BDBA871DBF328EA0
:101E30004DB579154698E5B97915C69761BB3971E5
:101E40003EDA2ED232D436D63AD842DC46DE9387FA
:101E5000018122CC804326CA06CEAA8409C41C4C28
:101E600099E32285892A0C4454102686228536C699
:101E70007929F2406244D2442161828041119387E2
:101E8000018122C4804306C61C5C8DEB6145512C48
:101E9000B737CDAB08DC9387E7301CC1B7176DE6C9
:101EA000938747235CC1B7E705009387C7EE1CC53E
:101EB000AD475EA50547814718C95CC9105C3787E7
:101EC000954CB7F75158144A484A1307D7F29387ED
:101ED000D742B387F602B24022443305E5023E956D
:101EE000B387E60233B7E6029386170014CA2A972F
:101EF00033B5F6003A9548CA06050581410182804E
:101F0000411122C406C62A844EA572A523200500CD
:101F1000232205002324050023220506232805008B
:101F2000232A0500232C0500214681451305C505FC
:101F3000EFE00FA3971700009387C7A35CD0971714
:101F400000009387E7A51CD4971700009387C7A9C3
:101F50005CD497170000938727AC00D01CD8B24000
:101F6000224441018280971500009385A5DFA9A234
:101F7000411126C2130680069384F5FFB384C40280
:101F80004AC02E8922C406C693854407A1242A8408
:101F900001CD2320050023222501310508C4138625
:101FA00084068145EFE0CF9B2285B24022449244D3
:101FB0000249410182801C4DADE3411106C622C495
:101FC00097070000938767FA1CD5938741819C434C
:101FD0002324050423260504232805046314F5009F
:101FE00085471CCD2A841D2848C02285052808C4A1
:101FF00022852D2048C448400146914511370844A8
:102000000546A545F53D48440946C945D53D8547A2
:102010001CCCB240224441018280828041119387CE
:10202000418126C284434AC006C69C4C22C42A89E8
:1020300099E326854937938484048044DC40FD1766
:1020400063D607009C40B9CF8440C5BF0317C400C6
:1020500039E7C177850723220406232004002322C1
:102060000400232404005CC423280400232A040061
:10207000232C0400214681451305C405EFE04F8E53
:10208000232A0402232C0402232404042326040408
:102090002285B240224492440249410182801304C5
:1020A000840671BF91454A85E13588C051FDB1472D
:1020B0002320F9000144E9BF797122D44AD052CCDF
:1020C00056CA5AC85EC606D626D24ECE2A8AAE8ACE
:1020D000130485040149054BFD5B09ECB250225401
:1020E0004A8592540259F249624AD24A424BB24B53
:1020F00045618280044483294400FD1963D40900AA
:102100000040E1BFDE24637BFB008397E40063872C
:102110007701A6855285829A3369A9009384840643
:10212000E9BF93870181AA8588436DA0DDC183A79C
:10213000C5FF411122C406C626C21384C5FF63D35E
:1021400007003E94AA84EF00F05A938781849C4351
:1021500081EF2322040023A481842244B2402685F7
:10216000924441016F003059637EF40014403307FC
:10217000D4006396E7009843DC43369718C05CC0F0
:10218000D9BFBA87D84319C3E37DE4FE94433386AD
:10219000D700631F86001040B29694C33386D700E1
:1021A000E31DC7FA10435843B29694C3D8C375B71A
:1021B0006375C400B1479CC04DB71040B306C4005E
:1021C0006316D70014435843B29614C058C0C0C316
:1021D00069B78280011126CA93843500F19806CE32
:1021E00022CC4AC84EC6A104B14763F3F404B144FB
:1021F00063E2B4042A89EF00F04F93878184984307
:102200003A8439E09387C1849C4391E781454A85AC
:102210001D2F23A6A184A6854A853527FD5963195C
:102220003507B1472320F9004A85EF00D04C29A09B
:10223000E3D004FCB1471CC10145F2406244D244E2
:102240004249B249056182801C40858F63CF0702F5
:10225000AD4663F6F6001CC03E9404C031A05C405D
:102260006313870223A4F1844A85EF00D048130545
:10227000B4009307440061993307F5405DDF3A9459
:10228000898F1CC05DBF5CC3C5B72287404095BF26
:10229000130435007198E30285FCB305A4404A8518
:1022A0005D25E31C35FBB5BF1C46FD171CC663D975
:1022B0000700184E63C5E700A9476393F500B1AF67
:1022C0001C422E851387170018C28CA3828001112F
:1022D00022CC26CA4AC84EC652C406CE2A89AE8926
:1022E0003284B304D6007D5A63149400014501A8DA
:1022F0000C204E864A854D3F0504E31745FFF2400A
:102300006244D2444249B249224A05618280357111
:1023100022CD26CB4AC94EC706CF52C556C35AC195
:10232000DEDEE2DCE6DAAA89AE843289368409C5CB
:102330001C4D99E3EFF03FC8971700009387C7DC67
:102340006398F40C83A44900DE24A18BE5C79C4864
:10235000F5C393070002A304F1029307000302D21E
:102360002305F10222C6930B5002971A0000938AAC
:10237000AADD054C294B4A841C2099C3639E770D26
:10238000B30C2441638D0C00E6864A86A6854E85F3
:102390003D3FFD576301F51E9256E69636D21C204E
:1023A000638B071CFD571309140002C802CE3ECAF6
:1023B00002CCA309010482D4834509001546568541
:1023C000EF00D03113041900C24749E913F70701A0
:1023D00009C713070002A309E10413F7870009C71F
:1023E0001307B002A309E104834609001307A00202
:1023F000638EE606F2474A848146254618209305F7
:102400001400130707FD6376E60AADCA3ECEBDA0F1
:1024100097170000938747D16395F40083A4890040
:1024200025B797170000938727CCE39FF4F083A488
:10243000C90019BFA6854E85F92501DD7D55FA40F5
:102440006A44DA444A49BA492A4A9A4A0A4BF65B2C
:10245000665CD65C0D618280050439BF3305554149
:102460003315AC00C98F3EC82289B9B732479306ED
:102470004700184336C6634707023ACE1820930731
:10248000E002631DF70418309307A002631BF702F4
:10249000B2470904138747009C433AC663C1070249
:1024A0003ECA2DA83307E04093E727003ACE3EC846
:1024B000F1B7B387670385462E84BA9781B7FD5776
:1024C000C5B7050402CA81468147254618209305F1
:1024D0001400130707FD6376E606F9F20C200D469B
:1024E000171500001305C5C6EF00501F11CD971733
:1024F00000009387E7C51D8D93070004B397A700DD
:10250000424505045D8D2AC80C20194617150000A8
:10251000130545C4130914002304B102EF00101C75
:1025200035C197E7FFFF9387E7AD95E74247B2478D
:102530001377071009CF91073EC69257D2973ED224
:102540001DBDB387670385462E84BA9741B79D07A3
:10255000E19BA107D5B7780097060000938666D760
:1025600026860C084E8597000000E7000000FD5706
:102570002A8AE314F5FCDE2493F70704E39007ECC2
:10258000125575BD780097060000938686D426867E
:102590000C084E85012AE1BF797156CA9C49BA8A56
:1025A000984522D426D24ECE52CC06D64AD05AC80E
:1025B0005EC6AA892E84B284368A63D3E700BA87BE
:1025C0009CC00347340419C385079CC01C4093F783
:1025D000070281C79C4089079CC003290400137926
:1025E0006900631A0900130B9401FD5B5C44984079
:1025F000998F634CF9041C408346340493F7070217
:10260000B336D000A5EB13063404D2854E85829AEA
:10261000FD576303F5041C4011469840998B5444C0
:1026200081446397C700B384E64063D304008144C8
:102630001C4418486354F700998FBE9401496904FB
:102640007D5B63982405014509A885465A86D28595
:102650004E85829A631E75017D55B2502254925464
:102660000259F249624AD24A424BB24B45618280DA
:102670000509ADBF3307D40013060003A301C70447
:102680000347540493871600A2978906A381E704A1
:102690009DBF85462286D2854E85829AE30E65FBD4
:1026A000050945B7797122D426D24AD04ECE06D636
:1026B00052CC56CA5AC8B689942D930790063289CF
:1026C000AA842E8413863504638DF60263E2D7064E
:1026D000930780056386F61863EDD700638E0620A6
:1026E00093073004638EF60A930A24042301D4046A
:1026F000C9A0930730066385F60A93074006E39561
:10270000F6FE1C40084393F6070893054500C5C62E
:102710001C410CC363D807001307D002B307F04075
:10272000A301E40497160000938646A3294765A8F1
:10273000930700076382F61663E5D7029307E00666
:102740006389F6189307F006E390F6FA0C401C43F1
:1027500013F80508138547006307080608C39C4360
:1027600085A893075007E383F6FE930780076389E4
:10277000F61293073007E399F6F61C43D0418145E2
:102780009386470014C383AA07005685812F01C58D
:102790003305554148C05C401CC8A301040461A82E
:1027A0001C43930A2404938647009C4314C32301CB
:1027B000F4048547D5B793F607041C410CC3B9DA76
:1027C000C207C18781BF93F5050408C3C9D99E23F9
:1027D0001307F0066387E60E9716000093860698A7
:1027E0002947A30104044C400CC463C505000840FC
:1027F0006D9908C099E3B28A89CDB28AB3F5E70230
:10280000FD1AB6958C212380BA00B3D5E70263F098
:10281000E70CA147631EF7001C40858B91CB584005
:102820001C4863C7E70093070003A38FFAFEFD1A55
:102830003306564110C84E87CA867000A285268589
:10284000EFF09FD57D5A631D450B7D55B250225444
:1028500092540259F249624AD24A424B45618280FF
:10286000A382D504971600009386468F0C40084338
:1028700013F805081C411105630D080208C313F77E
:10288000150001C793E505020CC04147B9FB0C4098
:1028900093F5F5FD0CC0B1B79C4193E707029CC1CD
:1028A00093078007A302F404971600009386468CD2
:1028B00075BF13F8050408C3E30308FCC207C1830E
:1028C0007DBF9716000093866689214719BFAE87A2
:1028D00035B794411C43CC4913F8060813854700CB
:1028E0006306080008C39C438CC339A008C393F651
:1028F00006049C43F5DA8EA323280400B28A25BF80
:1029000014485686CA8526858299E30045F51C4001
:10291000898B8DE7B2474844E35AF5F23E853DB7CF
:1029200085465686CA8526858299E30065F3050AA1
:102930005C443247998FE345FAFEE9BF014A930AA6
:1029400094017D5BF5B7411122C42A842E8523A40E
:10295000019806C6EFF02F93FD576317F500938794
:1029600081989C4391C31CC0B240224441018280A3
:10297000411122C42E848395E50006C6B52B634918
:1029800005007C48AA977CC8B2402244410182805D
:102990005E247D777D17F98F5EA4FDB7DE250111DA
:1029A00022CC26CA4AC84EC606CE93F70710AA8480
:1029B0002E843289B68991C78395E5008946014600
:1029C00021215E247D777D17F98F5EA48315E400B5
:1029D0006244F240CE864A86B24942492685D244B4
:1029E0000561DDA8411122C42E848395E50006C649
:1029F000E12EFD575A24631AF500FD77FD17F98F74
:102A00005EA4B2402244410182808567D98F5EA4D2
:102A100068C8C5BF8395E500FDA2011122CC26CA76
:102A20004AC806CE4EC6AA842E89328409C51C4DDA
:102A300099E3EFF04FD8970700009387E76C63178F
:102A4000F406C0401C4C1CC45E24A18BC1C31C48AE
:102A5000B5CF1C4808409379F90F1379F90F1D8DF4
:102A60005C486346F500A2852685DD2C25E51C44DF
:102A70000505FD171CC41C401387170018C02380D0
:102A800037015C486388A7005E24858B81CBA9470A
:102A90006316F900A2852685E1240DEDF24062441B
:102AA0004A85D2444249B2490561828097070000B5
:102AB000938787676314F400804469B79707000021
:102AC00093878762E310F4F8C044ADBFA2852685E2
:102AD0001D2841D17D59D9B7411122C42A842E85A0
:102AE000B285368623A4019806C6EFE03FF6FD576F
:102AF0006317F500938781989C4391C31CC0B24033
:102B000022444101828041119387018126C284437E
:102B100022C44AC006C62A892E8491C49C4C81E7EF
:102B20002685EFF04FC9970700009387E75D631B89
:102B3000F402C0400317C40093170701C18393F642
:102B40008700B5EA93F6070195EEA5472320F90023
:102B5000136707045AA47D55B240224492440249A7
:102B600041018280970700009387075C6314F4009B
:102B70008044C9B79707000093870757E31CF4FA0E
:102B8000C0444DBF918B85C74C5891C993074404ED
:102B90006385F5004A85EFF06FD9232A04025E248D
:102BA0002322040093F7B7FD5EA41C481CC05E24DA
:102BB00093E787005EA41C4899EB5E24130700206E
:102BC00093F707286385E700A2854A85BD2C5E241C
:102BD00013F717001DC35C4823240400B307F0401B
:102BE0001CCC1C480145ADFB8317C40013F7070834
:102BF00025D793E707045EA4B9BF898B014791E30A
:102C0000584818C4F9BF411122C42A842E8523A430
:102C1000019806C68D26FD576317F50093878198A6
:102C20009C4391C31CC0B240224441018280DE25F6
:102C3000011122CC26CA06CE4AC84EC613F7870019
:102C4000AA842E8461EFD841634DE000B841634A05
:102C5000E0000145F2406244D2444249B249056174
:102C6000828058547DD703A904009396370123A08E
:102C7000040063DC060670485E24918B99C75C40B3
:102C80001D8E5C5899C33C401D8E5C540C5081468F
:102C900026858297FD575A24631DF5009440F54719
:102CA00063E9D706B70740208507B3D7D700858BE0
:102CB000ADC31C48232204001CC09317370163D8FE
:102CC0000700FD576314F5009C4091E368C84C5819
:102CD00023A02401BDDD930744046385F500268508
:102CE000EFF0CFC4232A0402ADB70C50014685464D
:102CF00026850297FD572A86E310F5F89C40ADDF44
:102D000075476385E70059476393E70423A02401CF
:102D100089B7136707045AA47D552DBF83A9050100
:102D2000E38909F203A905008D8B23A0350133093E
:102D30003941014791E3D84918C4E35C20F11C54A0
:102D40000C50CA864E86268582976347A0005E2473
:102D500093E707045EA4C9B7AA993309A940F1BF54
:102D60009C49ADC3011122CC06CE2A8419C51C4D45
:102D700089E72EC6EFF02FA4B2459707000093878E
:102D8000A738639CF5004C408397C5009DC72285FA
:102D90006244F24005616FF09FE997070000938756
:102DA000A7386394F5000C44C5B7970700009387D4
:102DB000A733E39BF5FC4C44C1BFF240624401459C
:102DC0000561828001458280411122C42A842E85BA
:102DD000B285368623A4019806C6C122FD57631723
:102DE000F500938781989C4391C31CC0B240224454
:102DF000410182801971A6DAAE848395E500A2DCD8
:102E000086DE328463DB0500DE2423A0060093F710
:102E100007089DE39307004015A0300836C6192225
:102E2000B246E34305FE7247BD67F98F7977BA97DB
:102E300093B717009CC2F9BF930700041CC0F6505B
:102E40006654D654014509618280DE25011122CCE9
:102E500006CE26CA4AC8898B2E8489CF930774046C
:102E60001CC01CC885475CC8F2406244D244424939
:102E70000561828074003000AA84EFF0BFF7A2459C
:102E80002A892685EFF00FB519E98317C40013F7D7
:102E9000072079FBF19B93E727005EA4C1B797F762
:102EA000FFFF9387870C9CD45E2408C008C893E773
:102EB00007085EA4A2475CC8B24799CB8315E4001B
:102EC0002685712011C55E24F19B93E717005EA44F
:102ED0005E243369F9002316240179B793F5F50FC1
:102EE0002A966314C500014582801C21E38EB7FE3B
:102EF0000505C5BF82808280411122C42A842E85A7
:102F0000B285368623A4019806C67128FD5763173B
:102F1000F500938781989C4391C31CC0B240224422
:102F200041018280411122C42A842E85B28523A4C6
:102F3000019806C6B920FD576317F500938781985D
:102F40009C4391C31CC0B240224441018280411184
:102F500022C42A842E8523A4019806C60D28FD5775
:102F60006317F500938781989C4391C31CC0B240BE
:102F70002244410182809307800523A4F1987D5566
:102F800082809307800523A4F1987D558280930762
:102F9000800523A4F198014582809307800523A42E
:102FA000F1987D5582809307800523A4F1987D5583
:102FB0008280000040080000580800005E08000001
:102FC0006808000053797374656D436C6B3A25642F
:102FD0000D0A00004368697049443A253038780D7D
:102FE0000A000000000102020303030304040404B6
:102FF0000404040405050505050505050505050585
:103000000505050506060606060606060606060664
:103010000606060606060606060606060606060650
:103020000606060607070707070707070707070734
:103030000707070707070707070707070707070720
:103040000707070707070707070707070707070710
:103050000707070707070707070707070707070700
:1030600007070707080808080808080808080808E4
:1030700008080808080808080808080808080808D0
:1030800008080808080808080808080808080808C0
:1030900008080808080808080808080808080808B0
:1030A00008080808080808080808080808080808A0
:1030B0000808080808080808080808080808080890
:1030C0000808080808080808080808080808080880
:1030D0000808080808080808080808080808080870
:1030E00008080808000000000000000000000000C0
:1030F00000000000000000000000000000000000D0
:1031000000000000000000000000000000000000BF
:1031100000000000000000000000000000000000AF
:10312000000000000000000000000000000000009F
:10313000000000000000000000000000000000008F
:1031400000000000232D302B20000000686C4C0094
:1031500065666745464700003031323334353637CF
:103160003839414243444546000000003031323393
:1031700034353637383961626364656600000000B3
:103180000000000000000000010203040607080917
:1031900000000000010203040102030406070809FD
:1031A000000000000431000024310000E430000081
:1031B000000000000000000000000000000000000F
:1031C00000000000000000000000000000000000FF
:1031D00000000000000000000000000000000000EF
:1031E00000000000000000000000000000000000DF
:1031F00000000000000000000000000000000000CF
:10320000FFFFFFFF006CDC02020406080C02002036
:08321000200000202000002036
:00000001FF
